S31508000000F8B600205D020008B74F0008F740000860
S31508000010B54F0008450C00080D60000800000000F8
S315080000200000000000000000000000009D0100081C
S31508000030ED10000800000000F9010008ED54000862
S31508000040770200087702000877020008770200089E
S315080000507702000877020008EF1000087702000808
S3150800006077020008F5100008FB1000087702000860
S31508000070F10C000877020008FD0C0008770200085A
S31508000080770200087702000877020008910C00083A
S31508000090850C00087702000877020008011100089D
S315080000A0C9550008E55500087702000877020008D8
S315080000B07702000801560008770200087702000850
S315080000C07702000877020008770200080153000843
S315080000D0770200087D5D000877020008195E0008AF
S315080000E07702000877020008770200080D56000814
S315080000F019560008770200087702000877020008F8
S3150800010077020008770200087702000877020008DD
S3150800011077020008770200087702000877020008CD
S3150800012077020008090D0008150D00087702000877
S31508000130770200087702000877020008E50C000835
S31508000140D90C000877020008770200087702000831
S31508000150B90D0008C50D0008D10D0008715E00082C
S31508000160770200087702000877020008770200087D
S3150800017077020008770200087702000800000000EE
S315080001807702000877020008DFF80CD000F062FB5F
S3150800019000480047B5710008F8B600202C4B1968CE
S315080001A00868B0E8F04F80F30988BFF36F8F4FF007
S315080001B0000080F3118870470000000008480068B6
S315080001C0006880F308884FF0000080F3148862B650
S315080001D061B6BFF34F8FBFF36F8F00DF00BF00BF5D
S315080001E008ED00E0DFF80C00016841F470010160D9
S315080001F0704700BF88ED00E0EFF30980BFF36F8F0B
S31508000200134B1A681EF0100F08BF20ED108A20E95C
S31508000210F04F106009B44FF0500080F31188BFF317
S315080002204F8FBFF36F8F08F05DF94FF0000080F332
S31508000230118809BC19680868B0E8F04F1EF0100F5D
S3150800024008BFB0EC108A80F30988BFF36F8F704738
S3150800025068000020EFF305807047000006488047D5
S3150800026006480047FEE7FEE7FEE7FEE7FEE7FEE78D
S31508000270FEE7FEE7FEE7FEE7AD5500088901000840
S315080002802DE9F05F0546002092469B4688460646BD
S31508000290814640241BE0284641464746224600F050
S315080002A022FA53465A46C01A914110D311461846A7
S315080002B0224600F009FA2D1A67EB01084F46224636
S315080002C00120002100F000FA17EB00094E41201E1C
S315080002D0A4F10104DFDC484631462A464346BDE818
S315080002E0F09F40EA01039B0703D009E008C9121FE3
S315080002F008C0042AFAD203E011F8013B00F8013BD2
S31508000300521EF9D27047D2B201E000F8012B491EFD
S31508000310FBD270470022F6E710B513460A46044694
S315080003201946FFF7F0FF204610BD421C10F8011BC6
S315080003300029FBD1801A70472DE9FE4F804681EAD5
S315080003400300C00F0C46009021F0004123F0004541
S31508000350B8EB0200A94105D24046214690461C4604
S315080003600B46024623F00040104347D0270DC7F33B
S315080003700A00C3F30A510290401A019040286BDA2A
S31508000380C3F3130040F4801B0098924620B1002363
S31508000390D2EB030A63EB0B0B01985946C0F14002F6
S315080003A0504600F091F906460D4650465946019AC0
S315080003B000F0A9F910EB08006141002487EA115200
S315080003C084EAE7731A4340D0009A62B3019A012A75
S315080003D04FEA075215DC001B61EB02014FF00042A1
S315080003E002EA0752CDE90042001C41F58011324667
S315080003F02B4600F0E0F903B0BDE8F08F40462146F1
S31508000400F9E7001B61EB0201001C41F58013001897
S315080004105B412018A2F5001747EB030140EAD570A7
S31508000420B6196D4111E06D084FEA360645EAC07502
S315080004304FEA0752001B61EB0201001C41F58011CF
S3150800044049084FEA30000019514132462B4603B09D
S31508000450BDE8F04F00F0A0B9009801224000002343
S31508000460D0EB020263EBE073009821464FEAE07492
S31508000470B8EB000061EB0401E9E783F000435BE7B2
S3150800048081F0004158E72DE9FE4F81EA030404F0A4
S31508000490004421F0004100944FF0000B23F0004384
S315080004A050EA01045ED052EA03045BD0C3F30A544F
S315080004B0C1F30A552C44A4F2F3340194A0FB025468
S315080004C0C1F3130141F48011C3F3130343F48013FA
S315080004D001FB024400FB034E840A970A44EA81544E
S315080004E047EA8357A4FB076802958D0A05FB07852B
S315080004F04FEA932C04FB0C542705029D4FEA065835
S3150800050047EA1637B5EB08056EEB070C870E920E11
S3150800051047EA811742EA8312A7FB0201B6EB0B01F1
S3150800052064EB00042B0D43EA0C335E1844EB1C50B5
S31508000530DA465146E7FB0201C5F313044FEA0B33CB
S3150800054043EA14534FEA0432019C43EA0603A4F132
S315080005500C040294009CCDE900B400F02CF903B019
S31508000560BDE8F08F00200146F9E72DE9F04D81EA54
S31508000570030404F0004B21F0004514464FF0000A2E
S3150800058023F0004150EA050220D054EA01021DD0AA
S31508000590C5F30A570246C5F31303C1F31300C1F3A3
S315080005A00A5640F4801543F48013A7EB0608101B7F
S315080005B0D64608F2FD3873EB050002D308F10108A8
S315080005C001E092185B41B8F1000F03DA00200146FA
S315080005D0BDE8F08D00204FF48011064684460EE0F3
S315080005E0171B73EB050705D3121B63EB05030643BD
S315080005F04CEA010C49084FEA300092185B4150EA70
S315080006000107EDD152EA030012D082EA040083EA18
S315080006100501084305D0101BAB4106D20122002371
S3150800062006E000224FF0004302E06FF0010253108B
S315080006301AEB06004CEB085110EB0A0041EB0B01D4
S31508000640BDE8F04D00F0A8B80EB5C10F80EAE0701D
S315080006500844CA07002140F233438DE80E000A46D3
S315080006600B4600F0A8F803B000BD00F0004230F0D9
S3150800067000400AD0C10D01F56071C0F3160042EAC8
S315080006800151C208400711437047002001467047D0
S3150800069001F0004330B421F0004150EA010206D0CF
S315080006A00A0DA2F56072C1F31301002A02DC30BC00
S315080006B000207047440F44EAC104C100E01830BC6A
S315080006C000EBC25000F031B8202A04DB203A00FAC9
S315080006D002F1002070479140C2F1200320FA03F38B
S315080006E0194390407047202A04DB203A21FA02F089
S315080006F00021704721FA02F3D040C2F1200291404E
S31508000700084319467047202A06DBCB17203A41FAD8
S3150800071002F043EAE07306E041FA02F3D040C2F180
S31508000720200291400843194670470029A8BF704720
S31508000730401C490008BF20F00100704710B4B0FA09
S3150800074080FC00FA0CF050EA010404BF10BC7047A4
S3150800075049B1CCF1200421FA04F411FA0CF118BFBE
S31508000760012121430843A3EB0C01CB1D4FEA00618D
S315080007704FEA102042BF002010BC704700EBC35060
S3150800078010440029A4BF10BC7047401C490008BF8C
S3150800079020F0010010BC704710B5141E73F1000458
S315080007A008DA401C41F1000192185B411A4301D155
S315080007B020F0010010BD2DE9F04D92469B4611B17F
S315080007C0B1FA81F202E0B0FA80F220329046FFF7E1
S315080007D07BFF04460F4640EA0A0041EA0B015346EE
S315080007E05A46084313D0114653EA010019D0C8F1F6
S315080007F040025046FFF777FF05460E4650465946D3
S315080008004246FFF761FF084305D0012004E0204671
S315080008103946BDE8F08D0020054346EAE0762C43CC
S3150800082037430A986305E40AA0EB08000022FD0A8C
S3150800083044EA47540A3002D500200146E9E7010593
S3150800084010196941DDE9084500196941BDE8F04D0F
S31508000850A2E70000064C074D06E0E06840F00103F9
S3150800086094E8070098471034AC42F6D3FFF790FC9B
S31508000870E09300080094000870B58C1810F8015B26
S3150800088015F0070301D110F8013B2A1106D110F81B
S31508000890012B03E010F8016B01F8016B5B1EF9D11F
S315080008A02B0705D40023521E0DD401F8013BFAE7A5
S315080008B010F8013BCB1A921C03E013F8015B01F810
S315080008C0015B521EF9D5A142D8D3002070BD0000A5
S315080008D0B7EE000A80ED000A9FED040A80ED010AD2
S315080008E080ED020A80ED030A704700000000000050
S315080008F001221021014801F0A5BC000000000240B9
S3150800090000221021014801F09DBC000000000240B1
S315080009107047000001221146014801F093BC00000F
S315080009200004024000220121014801F08BBC0000AE
S315080009300004024030B5437804781B021BB22343F7
S3150800094000EE103A194CB8EEC00AD4ED010A20EEB2
S31508000950200A81ED000AC37885781B021BB22B4357
S3150800096000EE103AD4ED010AB8EEC00A20EE200ACD
S3150800097081ED010A437904791B021BB2234300EE79
S31508000980103AB8EEC00A20EE200ADFED090A81ED1A
S31508000990020AD0F8060020F07F4000EE100AB8EEF2
S315080009A0400A20EE200A82ED000A30BD0000002031
S315080009B000401C42704706F0C3BC06F0D3B80000DE
S315080009C010B542780378120212B21A4300EE102AC2
S315080009D0124BB8EEC00AD3ED020A20EE200A81EDCA
S315080009E0000AC2788478120212B2224300EE102A54
S315080009F0D3ED020AB8EEC00A20EE200A81ED010AFC
S31508000A0042790079120212B2024300EE102AB8EEB9
S31508000A10C00A20EE200A81ED020A10BD000000205F
S31508000A2010B5FFF775FFFFF7C5FF05F037FE08B1EC
S31508000A30802402E005F09EFD044606F007F810B192
S31508000A4044F0400010BD05F093FF204310BD0000A0
S31508000A502DE9FC410746002016460D4600900190F8
S31508000A60FFF74EFF922000F0BDF8062269461220D5
S31508000A7000F09AF8FFF73CFF9DF801009DF800107A
S31508000A80000200B2084300EE100A464CB8EEC00A4F
S31508000A90D4ED010A20EE200A85ED000A9DF8030030
S31508000AA09DF80210000200B2084300EE100AD4EDC9
S31508000AB0010AB8EEC00A20EE200A85ED010A9DF863
S31508000AC005009DF80410000200B2084300EE100A63
S31508000AD0B8EEC00A20EE200A85ED020AFFF722FFCB
S31508000AE008226946002000F05FF8FFF713FF9DF81B
S31508000AF000000F2830D19DF803009DF8021000026F
S31508000B0000B2084300EE100AD4ED020AB8EEC00A95
S31508000B1020EE200A87ED000A9DF805009DF80410CE
S31508000B20000200B2084300EE100AD4ED020AB8EE3D
S31508000B30C00A20EE200A87ED010A9DF807009DF8F5
S31508000B400610000200B2084300EE100AB8EEC00A0A
S31508000B5020EE200A87ED020AFFF7D2FEA22000F057
S31508000B6041F802226946222000F01EF8FFF7C0FE6F
S31508000B709DF800009DF80110C00040EA5110B0F53C
S31508000B80806F01DBA0F5006000EE100AB4EE001AD3
S31508000B90F8EEC00AB3EE070A00EE810A86ED000AEF
S31508000BA0BDE8FC810000002070B514460D4640F0F3
S31508000BB0800000F017F806E0552000F013F8641ED0
S31508000BC005F8010BE4B2002CF6D170BD10B50C4641
S31508000BD040F0800000F006F8552000F003F8207079
S31508000BE010BD000001B582B04FF47A700090012361
S31508000BF001AA02A9024802F02FF99DF804000EBDC9
S31508000C00706B002002784078D20042EA5010B0F5A6
S31508000C10806F01DBA0F5006000EE100AB4EE001A42
S31508000C20F8EEC00AB3EE070A00EE810A81ED000A63
S31508000C30704710B50C46FFF7D5FF2046BDE81040B3
S31508000C40FFF7D0BFFEE7000000B58BB000200121FA
S31508000C50CDE906010590009001900290039004905A
S31508000C600E20CDE908106946054800F069FB022107
S31508000C70034800F0EFFA024800F0AAFF0BB000BDE7
S31508000C8018640020014800F056BC000018640020D3
S31508000C90014800F050BC00001864002000B58BB075
S31508000CA001220E2100200792CDE905100390049039
S31508000CB0CDE908210090019002906946054800F0A8
S31508000CC03FFB0221034800F0C5FA024800F080FF06
S31508000CD00BB000BD40640020014800F02CBC0000A9
S31508000CE040640020014800F026BC00004064002053
S31508000CF0014800F0FBBF0000D06F0020014800F05B
S31508000D00F5BF000030700020014800F0EFBF00007A
S31508000D109070002070B523480068800240D52149AC
S31508000D204FF0F460083108601F4C207880070CD516
S31508000D30207820F002002070207840F0040020700F
S31508000D4001221146194801F07DFA6078184D80078E
S31508000D500CD5607820F002006070607840F00400DE
S31508000D60607001221021284601F06CFAA0788007ED
S31508000D700CD5A07820F00200A070A07840F00400FE
S31508000D80A07001221021284601F05CFA06F03AF913
S31508000D902078400704D50748016841F00101016041
S31508000DA070BD0000006402402001002000040240DB
S31508000DB000000240103C0140014800F097BF0000C7
S31508000DC0106F0020014800F091BF0000F07000206D
S31508000DD0014800F08BBF0000706F00202DE9F04F2E
S31508000DE085680024099E802D18D0894DC563894DD4
S31508000DF0456490F83450012D15D0012580F83450FB
S31508000E0090F83550012D10D0002180F834100224B6
S31508000E10002180F834102046BDE8F08F4FF4807129
S31508000E2041650120F8E70220F6E7022580F83550EB
S31508000E300025456505682F6847F480272F600568F3
S31508000E402B6103685E608368402B03682AD099602B
S31508000E500168CA60714D704E704FDFF8BC81DFF8CB
S31508000E60B891DFF8B8A1DFF8B4B1EA14DFF8A8E161
S31508000E700168183630379302A9F148090AF1600A61
S31508000E800BF1180BAEF1300E4FF0006C41452DD921
S31508000E90A94205D0494503D0514501D0B14205D1F3
S31508000EA0202220E09A600268D160D3E759451AD01B
S31508000EB0714518D0594D7835A94214D0564D30355C
S31508000EC0A94210D0B9420BD0534A183A914207D0DA
S31508000ED0524A9032914203D04F4A4832914201D148
S31508000EE01A4600E062464C494C392EE0DFF82C8160
S31508000EF008F1A80841452AD9A94205D0494503D091
S31508000F00514501D0B14201D120221CE059451AD0E1
S31508000F10714518D0414D7835A94214D03E4D30352B
S31508000F20A94210D0B9420BD03B4A183A914207D091
S31508000F303A4A9032914203D0374A4832914201D117
S31508000F401A4600E06246344950390A605AE0DFF82A
S31508000F50CC8008F1480841452AD9A94205D0494517
S31508000F6003D0514501D0B14201D120221CE0594598
S31508000F701AD0714518D0294D7835A94214D0264D76
S31508000F803035A94210D0B9420BD0234A183A9142BB
S31508000F9007D0224A9032914203D01F4A48329142E2
S31508000FA001D11A4600E062461C491039CA6029E098
S31508000FB0A94205D0494503D0514501D0B14201D1D6
S31508000FC020221CE059451AD0714518D0134D7835A2
S31508000FD0A94214D0104D3035A94210D0B9420BD0D1
S31508000FE00D4A183A914207D00C4A9032914203D0E2
S31508000FF0094A4832914201D11A4600E06246074939
S3150800100010398A6001680A6842F001020A60FFE640
S315080010103D6C0008896C0008586402401060024064
S3150800102001681823CAB2103AB2FBF3F2054B6FF304
S315080010300901032A9B5CC36500D9091D8165084619
S3150800104070470000D68F000810B5014600208B694E
S315080010508A6A4FF0C07453B1B3F5005F15D072B108
S31508001060012A0CD0022A0AD0032A09D104E01AB1AF
S31508001070012A06D0022A03D1C96AC90100D501206E
S3150800108010BDC96AA142FAD010BD002AF7D0012ABC
S31508001090F2D0022AF3D0032AF3D010BD30B5046883
S315080010A0256825F480252560046863608368402BDD
S315080010B0036803D099600068C26030BD9A60006812
S315080010C0C16030BD01680A68D20604D5C968C90678
S315080010D001D506F043BF704701680A68D20604D5F1
S315080010E0C968C90601D506F039BF7047704701209F
S315080010F000F0A4BF082000F0A1BF102000F09EBF9A
S3150800110010B5202000F09AFF402000F097FFBDE8B8
S315080011101040802000F092BF72B6FEE70F4800220A
S3150800112001880F4811B10121017003E00D490988B2
S3150800113001B102700C490B880949B1F902100BB1CB
S315080011400A3100E06439418009B2FA2902DDFA2140
S31508001150418070470029FCDA42807047040100206C
S31508001160B0010020060100201001002010B558B17A
S31508001170084C491E0BD310F8013B5340DBB234F838
S31508001180133083EA1222F4E74FF6FF7010BD1046BB
S3150800119010BD00008491000810B5054C04E000BF9E
S315080011A010F8013B5340E25C491EF9D2104610BDC7
S315080011B08490000810B51B489FED190AF2EE000A44
S315080011C02DED028B00F10C0180ED030A9FED160A46
S315080011D09FED188A80ED040A9FED140A80ED050A32
S315080011E0C0ED060A80ED070A80ED080A9FED100A91
S315080011F0F0EE480A80ED2C0AB0EE480A243006F0D4
S3150800120039F9F0EE480AB0EE480A0649BDEC028BF9
S315080012101831BDE8104001F1500006F02BB9000066
S315080012200000A0420C740020CDCCCC3D000000008C
S31508001230000020430060EA4642F2107006F080F88B
S31508001240FFF7B8FF02F058FF05F052FE012006F03E
S3150800125077F8F7E790F82020012A07D0022A05D068
S31508001260416A41F480214162012070470068426961
S315080012700A43426100207047F0B590F82050046890
S31508001280A468012D05D0022D03D0416A41F48021BE
S3150800129053E014F0406F01D1E5004BD5C4F3016467
S315080012A0022C03D9416A41F4000146E00125A54014
S315080012B01D608D684FF4C0739DB1CE6835434E6886
S315080012C045EAC605066803EB0417F5514FF4C275DF
S315080012D0076805EB04150E697E51097D012905D0BD
S315080012E009E00E88CD6845EA4655EBE701684E5990
S315080012F046F480764E511179D2F805504FF4C676E9
S3150800130041EA0525016806EB04168D511178D2F8D5
S3150800131001204FF4C47541EA0221026805EB041561
S315080013205151006803EB0411425842F00102425041
S315080013300020F0BD416A41F4001141620120F0BD70
S3150800134010B590F82020012A07D0022A05D0416A54
S3150800135041F480214162012010BD3B48D0F80022AB
S3150800136042F00102C0F80022D0F8002222F47C5292
S31508001370C0F80022D0F800224B6A42EA0322C0F8DD
S3150800138000220A7D02F01F0301229A40D0F81C327F
S315080013909343C0F81C32CB69B3B9D0F80C329343E7
S315080013A0C0F80C328C894B6864F31F434C6900EB18
S315080013B0C404C4F840320C890B6864F31F434C69B3
S315080013C000EBC404C4F84432CB69012B16D1D0F81B
S315080013D00C321343C0F80C320C884B6864F31F4375
S315080013E04C6900EBC404C4F840320C89CB6864F33A
S315080013F01F434C6900EBC404C4F844328B69002BC4
S31508001400D0F804320ED01343C0F804320B69002B0F
S31508001410D0F8143208D01343C0F81432096A0129E7
S3150800142004D008E09343EFE79343F5E7D0F81C129E
S315080014301143C0F81C12D0F8001221F00101C0F8BF
S315080014400012002010BD000000640040704730B54F
S3150800145090F82040012C05D0022C03D0416A41F4B3
S3150800146080215DE00468002955D02469A40754D07A
S315080014704FF4D874056804EB01142D5915F00405CA
S31508001480956005682D594ED0ED08556005682C59AC
S3150800149004F00204D4604FF4DA74056804EB01140E
S315080014A02D5905F00F05156105682D59C5F3072552
S315080014B0956105682C59240C54614FF4DC72046854
S315080014C002EB0112A4581C700468A458240A5C7024
S315080014D00468A458240C9C700468A258120EDA708A
S315080014E04FF4DE72046802EB0112A4581C710468FA
S315080014F0A458240A5C710468A458240C9C710468D6
S31508001500A258120EDA71006881B1016941F0200112
S315080015100161002030BDE468A8E7416A41F4001182
S315080015204162012030BD6D0D1560AFE7C16841F01D
S315080015302001C160EDE72DE9F05F0546006800244B
S315080015404669D0F804908768D0F80CB0D0F810A097
S31508001550D0F81880F10748D0F90714D00121816026
S31508001560B80703D5284600F060FB0CE0780702D5DB
S315080015704FF4006407E0380702D54FF4805402E0C0
S31508001580284600F051FBF80516D529684FF48070F7
S315080015908860B80503D5284600F049FB0CE07805B5
S315080015A002D544F4005407E0380502D544F48044D3
S315080015B002E0284600F03AFBF80316D529684FF4EE
S315080015C080308860B80303D5284600F032FB0CE06B
S315080015D0780302D544F4004407E0380302D544F4FE
S315080015E0803402E0284600F023FB300707D55FEA7F
S315080015F0CB6004D52968102044F40074C8607007CD
S315080016004FF0080707D55FEA0B7004D52868C7604E
S31508001610284600F0A9F9B00706D52868C0688007EB
S3150800162002D0284600F0A2F9700607D55FEACA601C
S3150800163004D52968102044F480640861B00607D5EB
S315080016405FEA0A7004D528680761284600F0BCFAE4
S31508001650F00606D528680069800702D0284600F0FB
S31508001660B4FAB00308D55FEAC96005D52968102021
S315080016704860284600F0AAFAF00307D55FEA097021
S3150800168004D528684760284600F0D4FA300446D5C1
S315080016905FEA497040D5F00504D55FEAC87001D005
S315080016A044F00104B00504D55FEA887001D544F01A
S315080016B00204700504D55FEA487001D544F00404B5
S315080016C0300529D518F0700F26D008F0700040288C
S315080016D015D006DC102809D020280AD0302816D1C3
S315080016E00AE050280ED0602811D10EE044F0080414
S315080016F00DE044F010040AE044F0200407E044F04A
S31508001700400404E044F0800401E044F4807428684E
S31508001710816921F070018161296804204860002CE4
S3150800172005D0686A204368622846FFF78FFEBDE841
S31508001730F09F70B5040003D094F8200010B104E0BF
S31508001740012070BD204600F081F82068016841F04C
S315080017500101016000F07CFD0546052604E000F065
S3150800176077FD401B0A2811D820684068C007F6D0C4
S315080017702068016821F00201016000F069FD054654
S315080017800BE000F065FD401B0A2806D9606A40F4A4
S315080017900030606284F82060D2E7206840688007DD
S315080017A0EFD4207E0128206801683DD021F0800111
S315080017B00160607E01282068016838D021F0400168
S315080017C00160A07E01282068016833D021F020013D
S315080017D00160E07E0128206801682ED041F01001E2
S315080017E00160207F01282068016829D021F00801BE
S315080017F00160607F01282068016824D021F0040177
S315080018000160D4E902010843D4E9041211430843EC
S315080018106168491E08432168C8610020606201208A
S3150800182084F82000002070BD41F08001C0E741F037
S315080018304001C5E741F02001CAE721F01001CFE7D2
S3150800184041F00801D4E741F00401D9E7F0B587B0C3
S31508001850044614216846FEF75DFD3E4B3E48DFF818
S31508001860F0E01968D4F800C03B4A03250226092788
S3150800187010300024491CF4452AD11960012907D1E2
S31508001880016841F000710160006800F00070059081
S31508001890106840F0080010601068CDE9005600F0A6
S315080018A00800CDE9047069462C48CDE9024500F0E8
S315080018B0D1FB00220521132000F076FE132000F04C
S315080018C065FE00220521142000F06EFE14203AE081
S315080018D0DFF88CE0F44538D1D0F800C04CF0806CC5
S315080018E0C0F800C0D0F800C001290CF0806CCDF813
S315080018F014C0196007D1016841F0007101600068E1
S3150800190000F000700590106840F002001060106842
S3150800191002AB00F0020005906020CDE9000683E8DE
S31508001920B00069460F4800F095FB002205213F20CC
S3150800193000F03AFE3F2000F029FE00220521402053
S3150800194000F032FE402000F021FE07B0F0BD000096
S3150800195000640040B800002030380240000C024005
S3150800196000680040000402407047000030B5044695
S3150800197000687C498DB088421FD16B4602AA0021B7
S315080019802046FFF764FD0298A0F50071073903D1D8
S315080019906946754805F09CFD0298A0F201200228C8
S315080019A00BD80298714900EB400001EB8000A0F5C6
S315080019B0C05069460C3805F08BFD6D492068884291
S315080019C03CD16B4602AA00212046FFF740FD02994A
S315080019D06848332934D0342966D035297ED0A1F514
S315080019E0007111392AD1BDF8000000EE100AF8EE90
S315080019F0400A9FED610A614880EE801A80ED001A60
S31508001A00BDF8021000EE901AF8EE600A80EE801A11
S31508001A1080ED011ABDF8041000EE901AF8EE600A7F
S31508001A2080EE801A80ED021ABDF8061000EE901AB4
S31508001A30F8EE600A80EE801A80ED031A0DB030BD0C
S31508001A40BDF80010C1F30A01A1F5806101809DF877
S31508001A500110CA089DF8021042EA4112C2F30A02AE
S31508001A60A2F5806242809DF80320890941EA820234
S31508001A709DF8041042EA8122C2F30A02A2F58062A6
S31508001A8082804A089DF8051042EAC112C2F30A028A
S31508001A90A2F58062C280C1F3011282728909C172FD
S31508001AA0BDF806108181C9E7BDF80010C181BDF8EF
S31508001AB0021001829DF8043083749DF80520C274D3
S31508001AC0BDF8061081829DF806002D4D00F0010430
S31508001AD02C802C4D00F002042C8000E03CE02A4DBE
S31508001AE000F004042C80294D00F008042C80284DB1
S31508001AF000F040042C80274D00F080042C80264DF1
S31508001B0000F0100400F020002C80244C208024488B
S31508001B10037024480270244A01F480701080234A16
S31508001B2001F400701080224A01F480601080214A76
S31508001B3001F400601080204A01F4805010801F4A8A
S31508001B4001F4005010801E4A01F48040108001F410
S31508001B5000401C49088071E7BDF80010A1F58061B6
S31508001B6001816BE7006400400C740020B875002002
S31508001B7000680040F67300200000C8425C7100202F
S31508001B80FC000020FE0000200001002002010020C9
S31508001B900401002006010020080100200A01002097
S31508001BA00C0100200D0100200E010020100100206C
S31508001BB0120100201401002016010020180100203F
S31508001BC01A0100201C01002070477047704700006A
S31508001BD070B5044690F82000012804D0606A40F4E5
S31508001BE00020606218E0022084F82000206801685E
S31508001BF021F00101016000F02BFB05460EE000BF55
S31508001C0000F026FB401B0A2808D9606A40F4003019
S31508001C106062052084F82000012070BD20684068B5
S31508001C20C007EDD1606270BD704770477047704756
S31508001C307047704770472DE9F0410446876D00F0FC
S31508001C4007FB064694F835000025022806D08020B2
S31508001C50606584F834500120BDE8F0812068016889
S31508001C6021F0160101602068416921F08001416177
S31508001C70206C08B9A06C20B12068016821F0080121
S31508001C8001602068016821F0010101600CE000F0A4
S31508001C90DFFA801B052807D920206065032084F811
S31508001CA0350084F83450D7E720680068C007EED1BD
S31508001CB094F85C103F208840B860012084F835000D
S31508001CC084F834500020C7E790F83510022903D06D
S31508001CD08021416501207047052180F8351000688C
S31508001CE0016821F001010160002070472DE9F843E1
S31508001CF004464FF00009CDF8009063484FF416519A
S31508001D00A56D0068B0FBF1F72E6894F85C10082002
S31508001D1000FA01F131420FD021680A6852070BD543
S31508001D200A6822F004020A6094F85C108840A860E9
S31508001D30606D40F00100606594F85C104FF0010892
S31508001D4008FA01F0304208D021684969090604D525
S31508001D50A860606D40F00200606594F85C1004208D
S31508001D608840304208D021680968890704D5A860E8
S31508001D70606D40F00400606594F85C10102088409F
S31508001D80304218D021680968090714D5A860206868
S31508001D900168490304D50068000308D5A16C07E06B
S31508001DA00168C90503D4016821F008010160216CA6
S31508001DB009B12046884794F85C10202088403042B4
S31508001DC031D021680968C9062DD5A86094F8350070
S31508001DD005282068016806D0490347D5006800032E
S31508001DE01DD4616C1CE021F0160101602068416970
S31508001DF021F080014161206C08B9A06C20B12068EF
S31508001E00016821F00801016094F85C103F208840C1
S31508001E10A86084F8358084F83490216D1FE0E16B62
S31508001E2009B120468847606D00282BD0606DC00731
S31508001E3014D0052084F835002068016821F00101D6
S31508001E4001600098401C0090B84203D820680068DA
S31508001E50C007F6D184F8358084F83490E16C0029FF
S31508001E6010D001B02046BDE8F04308470168C9050F
S31508001E70D5D4016821F01001016084F8358084F812
S31508001E803490CCE7BDE8F883D80000202DE9F0416E
S31508001E90044600F0DDF906465CB1022084F83500F8
S31508001EA0002584F834502068016821F0010101609A
S31508001EB00DE00120BDE8F08100F0CAF9801B052875
S31508001EC005D920206065032084F83500F2E72068EC
S31508001ED00068C007F0D12268116820480140D4E99B
S31508001EE001031843D4E90336334318436369184397
S31508001EF0A3691843E3691843236A18430843616AC8
S31508001F00042903D1D4E90B13194308431060206848
S31508001F104069666A20F0070130460E430127042807
S31508001F200CD1A06A0643E06A40B12046FFF78CF858
S31508001F3020B14020606584F83570BAE720684661AC
S31508001F402046FFF76DF894F85C203F2191408160A8
S31508001F50656584F835700020ACE700003F8010F016
S31508001F602DE9F0410446866D90F8340000250128D5
S31508001F700DD0012084F8340094F835700020012F24
S31508001F8007D084F8340002252846BDE8F0810220EF
S31508001F90FBE7022784F8357060652046FFF77EF870
S31508001FA094F85C103F208840B0602068016841F0D2
S31508001FB016010160206C20B12068016841F0080113
S31508001FC001602068016841F001010160DCE700005A
S31508001FD010B5184C102818D020281FD0012813D166
S31508001FE006F02AFE01280FD004F12001606A06F0E7
S31508001FF09FF9206A002807D00F494FF080500860E3
S31508002000BFF34F8FBFF36F8F10BD607840F00100AC
S315080020106070A07840F00100A07003E0207840F0DE
S3150800202001002070E0780028EED0BDE8104004F0EA
S31508002030E9BF00002001002004ED00E0044910B5C6
S315080020400A68024202D00860FFF7C2FF10BD00000E
S31508002050143C01402DE9F84FDFF8BCA10022012508
S3150800206003264FF00F090AF1040BAAF1040E00BF6C
S315080020700B6805FA02F42340A34270D10F7907F0E2
S315080020800307012F01D0022F16D187684FEA4208AD
S3150800209006FA08FC27EA0C07D1F80CC00CFA08FC6B
S315080020A04CEA070CC0F808C04768A7430C79C4F384
S315080020B0001494403C4344600C79E443A4070AD0D6
S315080020C0C4684FEA420C06FA0CF7BC438F6807FA55
S315080020D00CF72743C7600C7904F00304022C12D1CD
S315080020E0D40800EB840CDCF820405707FF0E09FAE9
S315080020F007F824EA0804D1F8108008FA07F848EA2D
S315080021000408CCF8208004684FEA420C06FA0CF75B
S31508002110BC430F7907F0030707FA0CF72743076054
S315080021204C6814F4403F70D03C4C276847F480470D
S315080021302760246822F0030704F480440094384C8E
S3150800214007EB040CDCF8084897074FEA177809FAF2
S3150800215008F7BC43334FB84202D1002724E054E0C5
S31508002160314FB84201D101271EE0304FB84201D1A4
S31508002170022719E02E4FB84201D1032714E02D4F4C
S31508002180B84201D104270FE02B4FB84201D10527E9
S315080021900AE02A4FB84201D1062705E0284FB8427F
S315080021A001D1072700E0082707FA08F72743CCF8E4
S315080021B00878DAF800405746D1F804C09C435FEA2D
S315080021C0CC2C00D51C433C60DBF800405F46D1F8B8
S315080021D004C09C435FEA8C2C00D51C433C60DEF8A7
S315080021E000407746D1F804C09C435FEA8C3C00D592
S315080021F01C433C60084F083F3C68D1F804C09C4328
S315080022005FEACC3C00D51C433C60521C102AFFF404
S315080022102FAFBDE8F88F0000083C01404438024063
S31508002220003001400000024000040240000802405D
S31508002230000C024000100240001402400018024040
S31508002240001C02400AB1816170470904FBE70000DF
S3150800225001488068704700003000002070B504000F
S3150800226025D094F83D00002520B984F83C50204636
S3150800227000F0B8F8242084F83D002068016821F0B1
S31508002280010101602068016841F40041016020688D
S31508002290016821F40041016000F072FA4D4A616854
S315080022A0914201D84C4900E04C49884201D20120AC
S315080022B070BD4B492368B0FBF1F15E6826F03F0616
S315080022C00E435E606368934206D94FF4967359438A
S315080022D04FF47A73B1FBF3F12368491C1E6A26F0A2
S315080022E03F06314319626168914210D84900401E81
S315080022F0B0FBF1F2521CC2F30B02042A01D20420ED
S3150800230022E0B0FBF1F0401CC0F30B001CE0A26811
S31508002310F2B301EBC10303EB0116431EB3FBF6F35D
S315080023205B1C43F480431B0549D092B301EBC10201
S3150800233002EB0111401EB0FBF1F0401CC0F30B008C
S3150800234040F4804040F400402168CA694CF6FF73A7
S315080023509A431043C861D4E907100143206802680C
S3150800236022F0C00211430160D4E903010143206849
S31508002370826848F2FF339A4311438160D4E9050124
S3150800238008432168CA6822F0FF021043C86001E0CA
S315080023900EE016E02068016841F00101016025643D
S315080023A0202084F83D00256384F83E50002070BD47
S315080023B001EB4106431EB3FBF6F35B1CB3E70120B2
S315080023C0C2E701EB4101401EB0FBF1F0401CC0F32F
S315080023D00B00B7E7A086010080841E0000093D00B7
S315080023E040420F00F0B587B0044614216846FDF751
S315080023F091FF1D492068884233D11C480024016892
S3150800240041F004010160016801F0040105910168C9
S3150800241041F0800101600068122500F080000590F7
S315080024204FF40070CDE9000502AA0326042782E8C6
S31508002430D00069460E48FFF70DFE8020CDE900055D
S3150800244002AA694682E8D0000A48FFF703FE074851
S315080024501030016841F400010160006800F40000D2
S31508002460059007B0F0BD0000005C0040303802401F
S3150800247000080240001C02400248816802781144A4
S3150800248081607047300000200B4810B5016841F4A0
S3150800249000710160016841F480610160016841F4DE
S315080024A080710160032000F09FF80F2000F006F805
S315080024B000F050F8002010BD003C024030B505463B
S315080024C01F4887B00024016841F0020101600068D6
S315080024D006A900F00200009001A800F031F904985E
S315080024E0A8B100F04DF940001649174AB0FBF1F1C2
S315080024F01648491E026040F2E732C0E90324C0E9E3
S315080025000114846100F00EFE040003D015E000F00B
S3150800251037F9E9E70D4800F0DFFE04000DD11D206C
S3150800252000F034F8102D07D2002229461D2000F0AD
S315080025303BF80748056000E0012407B0204630BD97
S315080025404038024040420F0000040040886C0020DA
S31508002550340000200C4882B0016841F480410160D3
S31508002560006800F4804000900748001F016841F0A9
S31508002570805101600068002200F0805000900F2111
S31508002580901E02B000F010B844380240002809DB5B
S3150800259000F01F02012191404009800000F1E0206F
S315080025A0C0F8001170470000F0B40E4B1B680C46CB
S315080025B0C3F30223C3F10705042D00D90425191D09
S315080025C0072901D2002300E0DB1E012606FA05F1E1
S315080025D0491E214099409E40761E16403143F0BC64
S315080025E003F0CDBD0CED00E0064900F007020868CF
S315080025F04FF6FF03184040EA0220034A10430860DA
S31508002600704700000CED00E00000FA052DE9F047E0
S315080026100E46050065D0DFF81481D8F80000F7B239
S3150800262000F00700B04207D288F80070D8F800001A
S3150800263000F00700B04254D128683D4C810712D5F6
S31508002640400703D5206840F4E0502060287800074A
S3150800265003D5206840F4604020602068A96820F00F
S31508002660F000084320602878C0072DD030496868F4
S315080026700839012812D0022813D0032811D0096876
S31508002680890700292DDA216821F003010143216019
S31508002690FFF7DEFD814641F2883A0EE009688903B4
S315080026A0EFE709688901ECE7FFF7D2FDA0EB09011E
S315080026B0514502D90320BDE8F0872068696800F013
S315080026C00C00B0EB810FEFD1D8F80010404601F0AE
S315080026D00701B14207D90770006800F00700B04249
S315080026E001D00120E7E72878400705D52068E96882
S315080026F020F4E050084320602878000706D52068B3
S31508002700296920F4604040EAC100206000F058F8CA
S315080027102168084AC1F30311515CC840064908609C
S3150800272006480068FFF7CAFE0020C4E7003C0240DE
S31508002730083802406C900008D800002034000020B9
S315080027400F2202600C4A136803F003034360136800
S3150800275003F0F0038360136803F4E053C360126860
S315080027604FF4E05303EAD20202610448006800F01D
S31508002770070008607047000008380240003C024025
S315080027800448054900680968044AC1F38221515C76
S31508002790C8407047D8000020083802407C900008DE
S315080027A00448054900680968044AC1F34231515C86
S315080027B0C8407047D8000020083802407C900008BE
S315080027C0154810B5006810F00C02144813D01449C7
S315080027D0042A0FD0082A0ED10F4C241F226823681A
S315080027E002F03F025B0207D52068C0F38810A0FB01
S315080027F0010106E0084610BD2168C1F38811A1FB56
S3150800280000010023FDF73CFD2168C1F30141491C85
S315080028104900B0FBF1F010BD083802400024F4006E
S31508002820001BB7002DE9F84F04006ED02078DFF8BA
S315080028304C93C007A9F104054AD009F104000168C0
S31508002840C1F38101012908D00068C0F3810002287C
S315080028500AD1D9F80000400206D52868800337D582
S3150800286060680028E1D033E06068B0F5803F10D09A
S31508002870B0F5A02F286810D020F48030286028688A
S3150800288020F4802028606068A8B1FFF7E1FC0646BE
S315080028900DE0286840F48030F4E740F48020286092
S315080028A0F7E700BFFFF7D4FC801B642873D82868B5
S315080028B08003F7D50CE0FFF7CBFC064605E000BF22
S315080028C0FFF7C6FC801B6428F0D828688003F7D475
S315080028D02078DFF8AC8280074FF0000A3ED5A7487B
S315080028E0001D016811F00C0F08D00068C0F38100C4
S315080028F002280BD1D9F80000400207D428688007BF
S3150800290016D5E068012800D112E033E1E068B8B1D5
S315080029100120C8F80000FFF79BFC064605E000BF4B
S31508002920FFF796FC801B0228C0D828688007F7D5D1
S315080029302868216920F0F80040EAC10028600DE007
S31508002940C8F800A0FFF784FC064604E0FFF780FC01
S31508002950801B02281FD828688007F7D4207800072C
S3150800296022D5864F87486169703771B101210160A8
S31508002970FFF76EFC064604E0FFF76AFC801B022898
S3150800298009D838688007F7D50EE0C0F800A0FFF729
S315080029905FFC064605E082E0FFF75AFC801B02282A
S315080029A07DD838688007F7D42078400768D5DFF8DF
S315080029B0CCB100270BF13C0BDBF80000C0000BD4B0
S315080029C0DBF8001041F08051CBF80010DBF800006E
S315080029D0012700F0805000906B4E3068C00510D477
S315080029E0306840F480703060FFF732FC009005E0F4
S315080029F0FFF72EFC0099401A022850D83068C00507
S31508002A00F6D55E4EA0686C3601280FD005283068CA
S31508002A1010D020F001003060306820F004003060EB
S31508002A20A068B8B1FFF714FC00900FE0306840F0DA
S31508002A300100F4E740F004003060F7E7FFF708FC10
S31508002A400099411A41F28830814266D83068800779
S31508002A50F4D50EE0FFF7FCFB009007E0FFF7F8FB64
S31508002A600099411A41F28830814256D83068800769
S31508002A70F4D42FB1DBF8001021F08051CBF8001008
S31508002A80A069C8B33D49091D0968C1F38101022936
S31508002A904AD00228504607D0C8F8600000E03CE05B
S31508002AA0FFF7D6FB04463BE04746C8F86000FFF749
S31508002AB0CFFB064605E000BFFFF7CAFB801B0228CE
S31508002AC02BD828688001F7D4D4E907010843A16AFE
S31508002AD02E4A490802EB0141626A41EA821108431B
S31508002AE094F82C1040EA0161C9F8001001203866F4
S31508002AF0FFF7AEFB044606E03EE000BFFFF7A8FB83
S31508002B00001B022809D828688001F7D534E000BFE1
S31508002B10FFF79EFB001B022802D90320BDE8F88FA9
S31508002B2028688001F4D427E00128F7D0D9F80000F6
S31508002B30E26900F4800191421CD1226A00F03F014B
S31508002B40914217D147F6C071626A0140B1EB821F04
S31508002B5010D1A26A4FF0FF3300F4403103EB520262
S31508002B60B1EB024F06D194F82C1000F07060B0EB70
S31508002B70016F01D00120D1E70020CFE704380240D9
S31508002B8000004742800E4742007000400000FFFFE9
S31508002B907047000038B5016804464A688868C0432B
S31508002BA0430606D5C30704D1D3435B0601D4216C7B
S31508002BB005E0830708D4D3431B0605D4616C01B02E
S31508002BC02046BDE830400847830603D5430601D5AD
S31508002BD0C30551D4D3439B064ED443060AD494F86E
S31508002BE05130032B49D0636D43F004036365CB680A
S31508002BF08B680093830609D4636D43F0010363650C
S31508002C008B6800930B6823F040030B60C00506D45D
S31508002C10606D40F008006065206880680090606D0F
S31508002C20002829D02068416821F0E0014160012090
S31508002C3084F85100900701D4D00722D02068416853
S31508002C4021F003014160114DE06C40B10565E06C6F
S31508002C50FFF73AF818B1606D40F040006065A06C67
S31508002C60002809D00565A06CFFF72EF8002803D0C8
S31508002C70606D40F04000606538BDC868886800909F
S31508002C8038BD2046FFF784FF38BD00000D53000805
S31508002C9070B5040009D0606A002540B125616561F8
S31508002CA0A56294F8510040B10CE0012070BD60683F
S31508002CB0B0F5827FF4D0E561F2E784F850502046FB
S31508002CC000F044F8022084F851002068016821F0D9
S31508002CD040010160A088218900F4827001F4044152
S31508002CE00843A18901F400610843217C01F002012F
S31508002CF00843217D01F001010843218B01F400718D
S31508002D000843217F01F03801084394F8201001F0A8
S31508002D1080010843218D01F40051084321680860A9
S31508002D20A069042101EA104094F8241001F010016A
S31508002D300843216848602068C16921F40061C161BF
S31508002D406565012084F85100002070BD2DE9F04327
S31508002D5087B0064614216846FDF7DCFA384930681C
S31508002D60884269D137480025016841F480510160DD
S31508002D70006800F48050059032481438016841F024
S31508002D8002010160016801F002010591016841F044
S31508002D90010101600068022400F001000590182076
S31508002DA001274FF003084FF005098DE8910369469E
S31508002DB02548FFF74FF980208DE891036946234897
S31508002DC0FFF748F9234C22484FF0C0672060C4E952
S31508002DD001754FF48068C4E9035865617812A561E6
S31508002DE0C4E9075020466562FFF750F808B1FEF7B8
S31508002DF093F9F464A663174C154860341830E4E870
S31508002E0002074020A4E82101C00244F81459A5612C
S31508002E10C4E907500F4865626030FFF737F808B114
S31508002E20FEF77AF9B464002205212320A663FFF78A
S31508002E30BBFB2320FFF7AAFB07B0BDE8F083000021
S31508002E4000300140443802400004024000000240BD
S31508002E5040640240C86B00202DE9F84F044690F8FC
S31508002E60500000270A9E1D4692468B464FF00109E0
S31508002E7001280ED0012084F85000FFF7E9F98046B2
S31508002E8094F85100616801280CD0B1F5827F07D10A
S31508002E9002E00220BDE8F88FA16809B9042801D02C
S31508002EA00227C2E0BBF1000F27D0BAF1000F24D0E9
S31508002EB01DB394F85100042802D0052084F8510067
S31508002EC000206065C4F838A0E587A587C4F830B047
S31508002ED0E586A5862064606420680168490603D4EF
S31508002EE0016841F040010160E068B0F5006F606874
S31508002EF005D0E8B3012D46D07FE0012795E008B15B
S31508002F00012D39D1206B21680088C860206B801C90
S31508002F102063E08E401EE0862EE0206881688907DF
S31508002F200FD5E18E69B1B9F1010F0AD1216B098874
S31508002F30C160206B801C2063E08E401EE0864FF047
S31508002F40000920688168C9070CD0E18F51B1C068B3
S31508002F50A16B0880A06B801CA063E08F401EE087F1
S31508002F604FF00109FFF774F9A0EB0800B04200E042
S31508002F7009E001D3701C50D1E08E0028CDD1E08F36
S31508002F800028CAD13FE0206B216800780873206BBF
S31508002F90401C2063E08E401EE0862EE02068816893
S31508002FA089070FD5E18E69B1B9F1010F0AD1216BF5
S31508002FB009780173206B401C2063E08E401EE08672
S31508002FC04FF0000920688168C9070CD0E18F51B11C
S31508002FD0C068A16B0870A06B401CA063E08F401E00
S31508002FE0E0874FF00109FFF733F9A0EB0800B0427C
S31508002FF002D3701C01D010E07EB1E08E0028CDD13E
S31508003000E08F0028CAD142463146204602F086F9AA
S3150800301028B101272020606507E0032705E0A0689E
S3150800302018B92068C16880680090012084F85100AA
S31508003030002084F8500038462CE77047704710B5D2
S3150800304090F83C20012A22D0012280F83C20CA6848
S315080030508C6822F4407222434C6822F48062224330
S315080030600C6822F4006222430C6922F4805222433F
S315080030704C6922F400522243C969002322F4804293
S315080030800A4301684A6480F83C30002010BD0220DB
S3150800309010BD000070B590F83C20012A32D00124FA
S315080030A080F83C40022280F83D2003685A689D68F3
S315080030B022F070060A6832435A60134B02689A4235
S315080030C014D0B2F1804F11D0104B9A420ED0104B4B
S315080030D09A420BD00F4B9A4208D00F4B9A4205D012
S315080030E00E4B9A4202D00E4B9A4204D1496825F0FB
S315080030F080031943916080F83D40002180F83C1018
S31508003100084670BD022070BD000001400004004062
S3150800311000080040000C0040000401400040014047
S315080031200018004010B5040003D094F83D0010B113
S3150800313007E0012010BD002084F83C00204600F07E
S315080031401FF8022084F83D00211D206802F06AFA63
S31508003150012084F8460084F83E0084F83F0084F88D
S31508003160400084F8410084F8420084F8430084F85B
S31508003170440084F8450084F83D00002010BD000096
S3150800318008B5324A01683248914210D1016841F0C7
S31508003190010101600068002200F00100009005218D
S315080031A01820FFF701FA1820FFF7F0F944E0B1F10B
S315080031B0804F19D0274A914221D1016841F0020176
S315080031C001600068002200F00200009005212B2013
S315080031D0FFF7EAF92B20FFF7D9F9002205212C2061
S315080031E0FFF7E2F92C202DE01948001F016841F08D
S315080031F001010160006800F00100009008BD164A50
S3150800320091420ED1016841F48031016000680022C4
S3150800321000F48030009005211820FFF7C5F9182022
S3150800322010E00E4A9142E9D1016841F4003101608B
S31508003230006800F400300090002205211920FFF7ED
S31508003240B3F91920BDE80840FFF7A0B9000001400E
S315080032504438024000040140004001400044014057
S3150800326090F83D10012901D001207047022180F80D
S315080032703D1000681149884214D0B0F1804F11D032
S315080032800F4988420ED00F4988420BD00E49884212
S3150800329008D00E49884205D00D49884202D00D490A
S315080032A0884204D1816801F00701062903D0016824
S315080032B041F0010101600020704700000000014054
S315080032C00004004000080040000C004000040140D3
S315080032D0004001400018004090F83D10012901D037
S315080032E001207047022180F83D100168CA6842F043
S315080032F00102CA6000681149884214D0B0F1804FB3
S3150800330011D00F4988420ED00E4988420BD00E497B
S31508003310884208D00D49884205D00D49884202D016
S315080033200C49884204D1816801F00701062903D0B7
S31508003330016841F00101016000207047000001406A
S315080033400004004000080040000C00400004014052
S31508003350004001400018004070B5044690F83C0053
S315080033600025012817D0012684F83C60022084F83D
S315080033703D002068826822F0770222F47F4282604C
S315080033800868502838D00DDC20284FD005DC90B3CB
S31508003390102811D14AE0022070BD302846D04028B6
S315080033A00AD13BE060282FD070280DD0B0F5805F99
S315080033B003D0B0F5005F12D0012584F83D600020E7
S315080033C084F83C00284670BDCB68D1E90121206805
S315080033D002F099F92068816841F0770109E0CB6825
S315080033E0D1E90121206802F08EF92068816841F44C
S315080033F080418160E1E719E0CA684968206802F0FF
S3150800340057FA5021206806E0CA684968206802F021
S3150800341060FA6021206802F080F9CEE7CA68496838
S31508003420206802F045FA40212068F4E72268014640
S315080034301046F0E7704770B50446006801694FF01A
S315080034400005C943890715D4C168C943890711D43A
S31508003450E91E0161012020772068806980072046DF
S3150800346002D0FFF7E7FF04E000F0DAF8204600F0A4
S315080034706CF9257720680169C943490717D4C168DB
S31508003480C943490713D46FF004010161022020776C
S315080034902068806910F4407F204602D0FFF7CAFFF3
S315080034A004E000F0BDF8204600F04FF925772068C3
S315080034B00169C943090716D4C168C943090712D463
S315080034C06FF008010161042020772068C069800731
S315080034D0204602D0FFF7AEFF04E000F0A1F8204630
S315080034E000F033F9257720680169C943C90617D45E
S315080034F0C168C943C90613D46FF0100101610820D9
S3150800350020772068C06910F4407F204602D0FFF774
S3150800351091FF04E000F084F8204600F016F92577BC
S3150800352020680169C943C90708D1C168C943C907E1
S3150800353004D1891E0161204600F06CF920680169F2
S31508003540C943090609D4C168C943090605D46FF0F9
S31508003550800101612046FFF770FD20680169C943B3
S31508003560490609D4C168C943490605D46FF0400124
S315080035700161204600F058F920680169C9438906A7
S315080035800BD4C168C943890607D46FF020010161CD
S315080035902046BDE87040FFF751BD70BD10B586B036
S315080035A0044614216846FCF7B5FE2368174C1848EC
S315080035B002220121A34210D1036843F010030360DD
S315080035C00068CDE9021200F0100005904802CDE926
S315080035D00002049169460F4813E00F4CA34212D12A
S315080035E0036843F0200303600068CDE9021200F087
S315080035F0200005904020CDE900020320049069468A
S315080036000648FEF727FD06B010BD00000000014081
S3150800361030380240001002400044014000140240C5
S31508003620704770B5044690F83C0000260D46012800
S315080036300FD0012084F83C006AB1042A1DD0082A5C
S315080036402FD00C2A3FD00126002084F83C003046B3
S3150800365070BD022070BD206802F068F82068816994
S3150800366041F0080181612068816921F004018161C6
S31508003670206881692A69114311E0206802F086F8FA
S315080036802068816941F4006181612068816921F4BB
S3150800369080618161206881692A6941EA0221816124
S315080036A0D2E7206802F0A8F82068C16941F008014D
S315080036B0C1612068C16921F00401C1612068C1693E
S315080036C02A69114311E0206802F0CAF82068C16926
S315080036D041F40061C1612068C16921F48061C1615A
S315080036E02068C1692A6941EA0221C161ACE710B5BF
S315080036F0040003D094F83D0010B107E0012010BD86
S31508003700002084F83C00204600F01EF8022084F8C9
S315080037103D00211D206801F085FF012084F8460040
S3150800372084F83E0084F83F0084F8400084F841009D
S3150800373084F8420084F8430084F8440084F845007D
S3150800374084F83D00002010BD7047704710B5044648
S31508003750022249B104290ED0082913D094F8410051
S31508003760012816D0012010BD94F83E000128F9D191
S3150800377084F83E200FE094F83F000128F2D184F83F
S315080037803F2008E094F840000128EBD184F8402057
S3150800379001E084F841200122206801F0A7FF1649BC
S315080037A02068164A884201D0904203D1436C43F4FC
S315080037B0004343642068884213D0B0F1804F10D08C
S315080037C00F4988420DD00F4988420AD00E498842CF
S315080037D007D0904205D00D49884202D00C4988424C
S315080037E004D1816801F00701062903D0016841F078
S315080037F001010160002010BD0000014000040140E5
S315080038000004004000080040000C00400040014051
S315080038100018004000680349884201D1FEF72CBE13
S315080038207047000000040040704738B5044690F819
S315080038303E00202822D181B17AB194F83C000128B3
S315080038401CD0012084F83C002063204602F010FAC0
S31508003850002803D1216B012901D0012038BD216838
S315080038600A684968009121680C3151E8002F42F036
S31508003870100241E80023002BF5D138BD022038BDDF
S3150800388070B50E4618490024164D097826E000BF83
S3150800389055F82420D2F8002182421DD155F824007B
S315080038A0D0F8040128B1804755F824003146FCF7C2
S315080038B031FD55F8241091F8FF20D1F80001FFF7E3
S315080038C0B4FF55F82400D0F80001806B0068016841
S315080038D021F00801016070BD641CE4B28C42D7D3A4
S315080038E070BD000050710020DE00002010B50446AF
S315080038F00068406994F83D10C0F3C010212911D121
S3150800390080B12068143050E8001F21F0800140E89B
S315080039100012002AF5D1606B08B1FEF78CF9204633
S3150800392002F0B1F82068406994F83E10C0F38010A0
S31508003930222911D180B12068143050E8001F21F0E7
S31508003940400140E80012002AF5D1A06B08B1FEF745
S3150800395072F9204602F070F8002010BD70B51249C1
S315080039600024104D09781AE055F82420D2F80021D1
S31508003970824212D155F8241091F8FF20D1F800019F
S31508003980FFF753FF55F82400D0F80001806B006854
S31508003990016821F00801016070BD641CE4B28C4224
S315080039A0E2D370BD50710020DE000020F8B5016832
S315080039B004460868CA684B6910F00F0F4FF00005F7
S315080039C05AD003F0010602F49077374365D0C10751
S315080039D005D0D10503D5216C41F0010121644107C9
S315080039E005D5D90703D0216C41F00201216481076E
S315080039F005D5D90703D0216C41F0040121640107DC
S31508003A0007D502F02001314303D0216C41F00801AB
S31508003A102164216C00293BD0800604D5900602D586
S31508003A20204602F03EF820684069216CC0F38010F9
S31508003A3001F00801014320462BD001F0FDFF206864
S31508003A404069400621D52068143050E8001F21F04F
S31508003A50400140E80012002AF5D1A06BA8B16C49D4
S31508003A600165A06BFEF730F9002811D0A06B016D37
S31508003A7001B0BDE8F040084783060ED593060CD57D
S31508003A802046BDE8F84002F00CB82046FFF766FF6E
S31508003A90F8BDFFF763FF2564F8BD266B2023012ECA
S31508003AA079D1C60677D5D60675D5086848680090D0
S31508003AB04869400640D5A16B086840680004000CB8
S31508003AC0EAD0A28D8242E7D9E085C869B0F5807F41
S31508003AD02DD020680C3050E8001F21F4807140E892
S31508003AE00012002AF5D12068143050E8001F21F092
S31508003AF0010140E80012002AF5D12068143050E888
S31508003B00001F21F0400140E80012002AF5D184F890
S31508003B103E30256320680C3050E8001F21F0100164
S31508003B2040E80012002AF5D1A06BFEF784F8A08DB4
S31508003B30E18D401A81B229E0A08DE18D401A81B24B
S31508003B40E08D0028A8D00029A6D020680C3050E8BF
S31508003B50002F22F4907240E80026002EF5D1206846
S31508003B60143050E8002F22F0010240E80026002E0B
S31508003B70F5D184F83E30256320680C3050E8002FD4
S31508003B8022F0100240E80023002BF5D12046FFF76B
S31508003B9077FEF8BDFFE705062BD5150629D594F857
S31508003BA03D002128F5D1A068B0F5805F01D12069D4
S31508003BB0B0B1206A411C2162216800784860E08C17
S31508003BC0401E0004000CE084E3D12068C16821F09F
S31508003BD08001C1602068C16841F04001C160D8E732
S31508003BE0206A0088C0F308004860206A801C2062AA
S31508003BF0E5E74006CDD55006CBD5CA68204622F063
S31508003C004002CA6084F83D3000F073FAC1E700004C
S31508003C10F758000870B5040004D094F83D00002554
S31508003C2010B106E0012070BD84F83C50204600F033
S31508003C3023F8242084F83D002068C16821F4005147
S31508003C40C160204601F08EFF2068016921F4904189
S31508003C5001612068416921F02A0141612068C16833
S31508003C6041F40051C1602564202084F83D0084F8A1
S31508003C703E00002070BD00002DE9F04F87B00446D5
S31508003C8014216846FCF746FBA348DFF888821438F7
S31508003C900322D4F800C0A04B0221002507151604FC
S31508003CA04FF0070B4FF04009C44570D1D3F800C058
S31508003CB0AA464CF0100CC3F800C01B6803F01003AA
S31508003CC00593036843F002030360036803F00203E5
S31508003CD00593036843F00103036000680DF1040CC3
S31508003CE000F00100059080200090022090468CE8A4
S31508003CF0210969468948FEF7ADF9781000900DF15B
S31508003D00040C02208CE8210969468548FEF7A2F9C9
S31508003D10DFF81482834940464FF0006BC8F800105C
S31508003D20C0E901B5C0E90357C8F81450C8F81850D7
S31508003D30C8E90756C8F82450FEF7A8F808B1FDF7F1
S31508003D40EBF9794DC4F8388076486035C8F83840BC
S31508003D503030C5F80890C5E9000BC5E903A7C5F8D2
S31508003D6014A0C5F818A0C5E907A62846C5F824A0D2
S31508003D70FEF78CF808B1FDF7CFF965630022052137
S31508003D802520AC63FEF710FC25205FE0FFE7DFF88F
S31508003D909C81C4455FD1604BAA461B1FD3F800C05F
S31508003DA04CF4802CC3F800C01B6803F480230593E9
S31508003DB0036843F004030360006800F004000590FC
S31508003DC04FF440608DE82300CDE9032B6946584837
S31508003DD0FEF740F9DFF850B156490BF1C00B5846CB
S31508003DE04FF00068CBF80010C0E90185C0E9035719
S31508003DF0CBF81450CBF81850CBE90756CBF824501B
S31508003E00FEF744F808B1FDF787F94A484A4DC4F861
S31508003E1038B03030CBF8384085E80103C5E903A748
S31508003E20C5F814A0C5F818A0C5E907A62846C5F818
S31508003E3024A0FEF72BF808B1FDF76EF9656300229A
S31508003E4005212720AC63FEF7AFFB2720FEF79EFB74
S31508003E5007B0BDE8F08FDFF8E480C445F8D1D3F8A1
S31508003E6000C04CF0200CC3F800C01B6803F0200308
S31508003E700593036843F040030360006800F04000C0
S31508003E8005904FF484408DE823000820CDE90320EF
S31508003E9069462B48FEF7DEF8DFF89C80214908F1D1
S31508003EA06008603940464FF0206BC8F80010C0E93A
S31508003EB001B5C0E90357C8F81450C8F81850C8E93E
S31508003EC00756BA46C8F82450FDF7E0FF08B1FDF7D3
S31508003ED023F9194FC4F83880C037C8F83840C7E9FD
S31508003EE00295C7E904A5BD61C7E907560D487D6275
S31508003EF01830C7E9000B3846FDF7C8FF08B1FDF7CB
S31508003F000BF96763002205214720BC63FEF74CFBCB
S31508003F1047209BE700100140443802400004024055
S31508003F200000024088640240106F002000480040EC
S31508003F30000802402860024030700020001401404A
S31508003F400018024090F83E30202B0ED159B152B1DC
S31508003F5090F83C30012B08D0012380F83C30002330
S31508003F60036301F085BE0120704702207047704741
S31508003F70704700002DE9F843044690F83D001F46B7
S31508003F8016460D4620284CD1C5B1BEB194F83C0062
S31508003F90012846D0012084F83C004FF00008C4F8F8
S31508003FA04080212084F83D00FEF752F9A684814618
S31508003FB0E684A068B0F5805F03D004E00120BDE880
S31508003FC0F883206928B12E465FF0000584F83C8006
S31508003FD00EE00026FAE78021204601F093FEA0B9FC
S31508003FE0AEB116F8010B21684860E08C401EE084EB
S31508003FF0E08C4B464FF0000200970028EBD14FF0BB
S315080040004001204601F07EFE30B10320D7E735F89F
S31508004010020BC0F30800E6E7202084F83D000020E4
S31508004020CDE70220CBE7000070B5044690F83D00C6
S31508004030202836D191B38AB394F83C00012830D0B1
S31508004040012084F83C002162A284E28400252564CC
S31508004050212084F83D00636B1348D863636B1348CB
S315080040601864636B1248D864606B13460565266846
S31508004070606B321DFDF774FF21686FF04000086021
S3150800408084F83C502068143050E8001F41F0800145
S3150800409040E80012002AF5D1002070BDFFE7012094
S315080040A0FBE70220F9E70000ED5900082F5A00083F
S315080040B00759000890F83D30202B18D1A9B1A2B1B4
S315080040C090F83C30012B12D001628284C284002110
S315080040D00164212280F83D2080F83C100068C16800
S315080040E041F08001C160002070470120704702201E
S315080040F0704770477047FEE770B5454E2DED048B47
S31508004100B6F9025005F525709FED429A424CB0F576
S31508004110A56F79D8B6F90E00FCF796FA9FED3F1B06
S3150800412053EC112BFCF7AFF99FED3E0B53EC102B1C
S31508004130FCF7A9F941EC180B2846FCF785FA9FED20
S315080041403B0B53EC102BFCF710FA9FED3A1B53EC84
S31508004150112BFCF798F953EC182BFCF7EDF841EC0A
S31508004160180BD4F8B000FCF780FA53EC182BFCF7C0
S31508004170E3F8FCF78DFAC4F8B000F07C30B12F48AC
S31508004180417819B1D0F80600C4F8B00022482C4A84
S31508004190D0ED2C0AB03010EE901A914207DCF5EEFD
S315080041A0C00AF1EE10FA02DB9FED260A06E010EED1
S315080041B0901A254A914203DB9FED240A80ED000AF6
S315080041C0234894ED2C0A1449D0ED020A214AB43149
S315080041D070EE600A10EE900AC4ED2D0A904205DDD5
S315080041E09FED1D0A30EEC00A81ED000A0A48D4ED9B
S315080041F02D0AB0EE490A683002F00EFE84ED2B0A4D
S31508004200BDEC048B70BDFFE784ED2B9AF8E7000040
S31508004210F6730020000000000C7400200000000067
S315080042200000103F0000000000005440000000009D
S3150800423000A08440000000000000D03FD06C0020A1
S315080042400000204300002043000041430000414392
S315080042501C750020000034430000B4432DE9F041EA
S3150800426000262DED048B44F6206743E0254AA2F18B
S315080042701005291D101DFCF7EBFB6869FCF7F5F91D
S315080042809FED218B53EC182BFCF7FDF805F178040C
S3150800429041EC190B2068FCF7E8F953EC192BFCF7ED
S315080042A0ECF8FCF7F5F92060A869FCF7DEF953ECA1
S315080042B0182BFCF7E8F841EC190B6068FCF7D5F900
S315080042C053EC192BFCF7D9F8FCF7E2F96060E869BA
S315080042D0FCF7CBF953EC182BFCF7D5F841EC180B87
S315080042E0A068FCF7C2F953EC182BFCF7C6F8FCF7E4
S315080042F0CFF9A0603046761CB842B7DBBDEC048B1C
S31508004300BDE8F081447500202D431CEBE2360A3FD8
S3150800431008B5072000E0642003F012F8FCF780FBDC
S315080043200028F8D1714A0092A2F11009101D09F16E
S3150800433004018346FCF78CFBFFF790FF4A46A2F17F
S315080043404001A1F10C0002F00BFEDFED690A9FEDBA
S31508004350690A694A002109F1300000F0C1FEA9F195
S315080043603402A2F10C0101F11800FCF7B1FAA9F127
S315080043704007A7F1180597ED000AA5F10C0685ED8B
S31508004380000AA5F1180886ED000A88ED000A97EDDF
S31508004390010A002085ED010A86ED010A88ED010A69
S315080043A097ED020A85ED020A86ED020A88ED020AF1
S315080043B002F0FCFF04F0FEFB504C102160625048EE
S315080043C0C161FEF765FC08B1FCF7A6FE4B49082259
S315080043D03431A1F1080000F01BFF0120E0704FF016
S315080043E0FF3A5146012003F007FE0128F9D120784B
S315080043F0400708D5207820F0040020703F48594629
S315080044003530FCF7DDFA607840070BD5607820F088
S3150800441004006070354A09F104011032A2F12A003D
S31508004420FCF788FAA07840070CD5A07820F004009D
S31508004430A070324800992A30FCF7E4FB99ED040A8B
S3150800444002F064FE294A103AA2F14001A1F10C00DB
S3150800445002F086FD96ED000ADFED2A2A88ED000AAD
S31508004460D5ED000A9FED281AC6ED000A60EEA21ADD
S31508004470DFED260A1D4840EE011A97ED000A5C3862
S3150800448040EE201AC5ED001A96ED013A88ED013A7C
S3150800449095ED010A86ED010A20EE222A97ED010A1A
S315080044A003EE012A00EE202A85ED012A96ED023A4E
S315080044B088ED023A95ED020A86ED020A60EE222A96
S315080044C097ED020A43EE012A40EE202AC5ED022A9C
S315080044D090EC030A243000F07BFC044B203B1A1FA7
S315080044E0111FA1F1100002F01DFC7AE744750020A7
S315080044F00080894500A08C4584930008200100208F
S31508004500706B00205AF8F63F5D896EBFD5A9183B37
S315080045102DE9F0470E4607460025DFF89491BFE0DF
S31508004520785DA52872D178190446052101F08EFD1B
S3150800453000286BD06078A17840EA012805EB0800CE
S315080045400930B04245D8204608F1090101F060FD5E
S3150800455000285BD06079A17940EA012040F2022167
S31508004560A0F20222884260D017DCB0F5817F3FD0E6
S3150800457009DC01281AD003281FD005282AD0B0EB59
S31508004580610022D12DE0B0F5827F38D0A0F5807089
S3150800459005383CD0FC2818D140E0092A15D2DFE8B6
S315080045A002F0144B525960676E7577000B208046EF
S315080045B002463F48E11D8F3805E020208046024626
S315080045C03B48E11D8338FBF78CFE05EB08000930F4
S315080045D0C5B265E00D20804602463548E11D6338C0
S315080045E0F1E70420804602463148E11D5638EAE7DD
S315080045F00420804602462E48E11D5238E3E7022091
S31508004600804602462A48E11D4E38DCE746E001208E
S31508004610804602462648E11D4C38D4E71B208046D2
S3150800462002462348E11D4B38CDE710208046024656
S315080046301F48E11D3038C6E71020804602461C4850
S31508004640E11D2038BFE70120804602461848E11DD3
S315080046501038B8E70120804602461548E11D0F3894
S31508004660B1E70120804602461148E11D0E38AAE747
S315080046700720804602460E48E11D0D38A3E70620AE
S31508004680804602460A48E11D801F9CE7042000E098
S31508004690062080460246E11D484694E76D1CEDB2A9
S315080046A0B542FFF43DAFBDE8F04701F091BC00000C
S315080046B0C07300200F4810B50D4901600321416001
S315080046C000214FF410228160C0E903124FF4001252
S315080046D04261017641768176C17601774177FDF7A9
S315080046E028F8002803D0BDE81040FCF715BD10BD1A
S315080046F000640040186400200F4810B50D49016099
S315080047000321416000214FF410228160C0E90312A1
S315080047104FF400124261017641768176C1760177BF
S315080047204177FDF706F8002803D0BDE81040FCF7EE
S31508004730F3BC10BD0068004040640020294808B555
S31508004740016841F480010160016801F4800100916B
S31508004750016841F4001101600068002200F40010AD
S31508004760009005210C20FDF71FFF0C20FDF70EFF1A
S31508004770002205210E20FDF717FF0E20FDF706FF84
S31508004780002205213920FDF70FFF3920FDF7FEFE2F
S31508004790002205213A20FDF707FF3A20FDF7F6FE2D
S315080047A0002205213B20FDF7FFFE3B20FDF7EEFE2C
S315080047B0002205214420FDF7F7FE4420FDF7E6FE1A
S315080047C0002205214520FDF7EFFE4520FDF7DEFE18
S315080047D0002205214620FDF7E7FEBDE808404620F1
S315080047E0FDF7D4BE3038024010B5A4B01C221C49CF
S315080047F06846FBF776FD0021684602F0ADFD194CC8
S3150800480017491C2220611C3107A8FBF76AFD002105
S3150800481007A802F0A1FD1249A0601C2238310EA893
S31508004820FBF75FFD00210EA802F096FD0C49E0603B
S315080048301C22543115A8FBF754FD002115A802F0D7
S315080048408BFD074920601C2270311CA8FBF749FD27
S3150800485000211CA802F080FD606024B010BD000095
S31508004860E08F0008BC0000202DE9F04F87B0142126
S315080048706846FBF74FFD71480025016841F00201C3
S315080048800160016801F002010591016841F04001EB
S315080048900160016801F040010591016841F00101DC
S315080048A00160016801F001010591016841F0080104
S315080048B00160016801F008010591016841F00401F1
S315080048C00160016801F004010591016841F48071F5
S315080048D00160016801F480710591016841F0800169
S315080048E00160016801F080010591016841F020012D
S315080048F00160016801F020010591016841F010018D
S3150800490001600068DFF838A100F010000590012268
S3150800491040215046FDF796FC4A4F4FF4E0560022D8
S3150800492031463846FDF78EFCDFF81C91012210212E
S315080049304846FDF787FCDFF814B1012241F2010170
S315080049405846FDF77FFCC0204FF48818CDE90008CB
S31508004950694602953E48FDF77DFB01244020CDE9D6
S3150800496000040294694650460394FDF773FBCDE9AB
S31508004970006469463846CDE90245FDF76BFB082019
S315080049804FF40416CDE90006694602945046FDF731
S3150800499061FBCDE90045694648460294FDF75AFB96
S315080049A01020CDE900040227CDE9024769464846AA
S315080049B0FDF750FB3020CDE90006694602942548EC
S315080049C0FDF748FBCDE90048694650460295FDF7D4
S315080049D041FB2003CDE90004029469465846039436
S315080049E0FDF738FBCDE9024700946946584601941D
S315080049F0FDF730FB062100220846FDF7D5FD062007
S31508004A00FDF7C4FD002205210920FDF7CDFD09208B
S31508004A10FDF7BCFD002205210A20FDF7C5FD0A2089
S31508004A20FDF7B4FD002205211720FDF7BDFD17206F
S31508004A30FDF7ACFD07B0BDE8F08F00003038024046
S31508004A4000180240001C0240000002400004024018
S31508004A5000200240000802400D4810B50B490160CD
S31508004A600C49416000214FF480428160C0E903127D
S31508004A7041618161C1610162FDF7F0FB002803D045
S31508004A80BDE81040FCF748BB10BD0000005C0040C4
S31508004A90106B0020801A0600104810B50E490160F8
S31508004AA04FF482714160002102228160C0E903123D
S31508004AB001224261520282611022C0E90721416245
S31508004AC081620A21C162FEF7E3F8002803D0BDE837
S31508004AD01040FCF721BB10BD00300140706B002070
S31508004AE010B588B01C216846FBF714FC1448134916
S31508004AF00024C0E900144FF6FF71C0E902410461C1
S31508004B008461FEF70FFB08B1FCF706FB0C48FEF7BD
S31508004B10EEFD08B1FCF700FB6020CDE90004029425
S31508004B200022694606480494FEF77BFD08B1FCF7A7
S31508004B30F3FA0348FEF732FD08B010BD0044014001
S31508004B40FC6D002010B596B000240F9410941194B3
S31508004B50129413941C2108A81494FBF7DBFB20215C
S31508004B606846FBF7D7FB294827490160A721C0E912
S31508004B70011444F61F61C0E9031444618461FEF719
S31508004B80D1FA08B1FCF7C8FA4FF480500F900FA974
S31508004B901E48FEF7E1FB08B1FCF7BEFA1B48FEF714
S31508004BA0A6FD08B1FCF7B8FA139413A9174814948C
S31508004BB0FEF770FA08B1FCF7AFFA602008904FF4D8
S31508004BC0FA70CDE909040B940C940D94002208A9F7
S31508004BD00E480E94FEF725FD08B1FCF79DFA0094E1
S31508004BE04FF40050CDE904400294019403946946B9
S31508004BF006480794FEF723FA08B1FCF78DFA03482E
S31508004C00FEF7CCFC16B010BD00000140DC6C00209D
S31508004C1010B586B0002416480094019402940394B3
S31508004C2004944FF080410594016042F2D001C0E936
S31508004C3001146321C0E903148461FEF773FA08B10D
S31508004C40FCF76AFA4FF48050009069460848FEF768
S31508004C5083FB08B1FCF760FA049404A90448059498
S31508004C60FEF718FA002801D0FCF756FA06B010BD70
S31508004C70246D002010B586B00024174800940194CE
S31508004C80029403940494134905940160A721C0E98A
S31508004C90011444F61F61C0E9031444618461FEF7F8
S31508004CA041FA08B1FCF738FA4FF48050009069468B
S31508004CB00948FEF751FB08B1FCF72EFA049404A93B
S31508004CC005480594FEF7E6F9002801D0FCF724FA12
S31508004CD006B010BD000401406C6D00201FB5002110
S31508004CE010480091019102910D4A0391026044F225
S31508004CF09F12C0E901216322C0E903218161FEF701
S31508004D0011FA08B1FCF708FA4FF48050009069468A
S31508004D100448FEF721FB002801D0FCF7FDF91FBD6A
S31508004D2000400140B46D00200C4810B50A490160E6
S31508004D304FF4E1314160002181600C22C160C0E975
S31508004D4004128161C161FEF765FF002803D0BDE842
S31508004D501040FCF7E1B910BD00100140446E002078
S31508004D600C4810B50A4901604FF4E1314160002151
S31508004D7081600C22C160C0E904128161C161FEF73D
S31508004D8049FF002803D0BDE81040FCF7C5B910BD9F
S31508004D9000480040886E00200C4810B50A4901609A
S31508004DA04FF4E1314160002181600C22C160C0E905
S31508004DB004128161C161FEF72DFF002803D0BDE80A
S31508004DC01040FCF7A9B910BD00140140CC6E0020B4
S31508004DD0F5EEC01AB0EE413AF0EE603AB0EE404A4F
S31508004DE0F1EE10FA00B5024609D1B5EEC02AF1EE89
S31508004DF010FA04D1F5EEC02AF1EE10FA78D021EEB9
S31508004E00A10A02EE020A02EEA20A02F0BDF921EE9A
S31508004E10805A62EE004A92ED011AD2ED030A22EE9A
S31508004E20800AD2ED002A21EE202AD2ED021A22EEBD
S31508004E30811A5C4802EEE12A01EEA01AF6EE001A83
S31508004E4052EEA21A40EEA01A60EE020A64EEA12AF9
S31508004E5045EE610A40EE412A25EE010A90ED041A54
S31508004E6004EEC20AB5EEC01AF1EE10FA2CDD90ED8A
S31508004E70041AD0ED051A21EE222A9FED4B1A42EEAE
S31508004E80011AC0ED051AD0ED041A21EEA02AD0EDBC
S31508004E90061A42EE011AC0ED061AD0ED041A21EEE2
S31508004EA0802AD0ED071A42EE011AC0ED071A90EDD6
S31508004EB0051A34EE014A90ED061A73EE813A90ED22
S31508004EC0071A33EE013A07E09FED381A80ED051A06
S31508004ED080ED061A80ED071A90ED031A01EE224AB4
S31508004EE090ED031A41EE203AD0ED030A00EE803A1F
S31508004EF09FED2F0AD2ED021A24EE002A63EE802ACD
S31508004F0023EE001A92EC020A92ED033A60EEC23AD8
S31508004F1041EEE23A43EE413A73EE804A60EE023AD7
S31508004F20C2ED004A41EE813A43EE623A33EEA04AB8
S31508004F3060EE223A20EE010A82ED014A40EEC13ABD
S31508004F4000EEA20A43EE023A01EEC20A73EEA13A55
S31508004F5070EE030A24EEA40AC2ED023AC2ED030A71
S31508004F6004EE040A03EEA30A00EEA00A02F00CF906
S31508004F70D2ED000A60EE800AC2ED000AD2ED010AFF
S31508004F8060EE800AC2ED010AD2ED020A60EE800ADE
S31508004F90C2ED020AD2ED030A20EE800A82ED030A68
S31508004FA000BD0000200100206F12833A00000000B7
S31508004FB06F12033AFEE7FEE7A0B1D0ED101AC0ED76
S31508004FC0111A90ED0F1A80ED101AC0ED060A80ED41
S31508004FD0070A30EEC00A80ED0F0A017829B10129C7
S31508004FE03BD078E09FED3D0A7047D0ED010A60EEB0
S31508004FF0801AC0ED091AD0ED0A0A90ED022A42EE8F
S31508005000000A30EE410AC0ED0A0A90ED0D2A80ED3D
S315080050100E2A90ED0C2A80ED0D2A80ED0C0A90EDF3
S31508005020031A21EE001A80ED0B1A90ED050AF4EE2C
S31508005030C00AF1EE10FA09DCB1EE400AF4EEC00A35
S31508005040F1EE10FA02D390ED0A0A01E080ED0A0AA1
S3150800505031EE800A30EE010A2BE070EE410A90ED3F
S31508005060012A20EE822A80ED092AD0ED020A60EE96
S31508005070800AC0ED0A0AD0ED0D2A72EE200AC0EDAC
S315080050800E2AD0ED0C2AC0ED0D2AF0EE002A01EE0C
S31508005090620A30EE210A80ED0C0A90ED031A21EE21
S315080050A0000A80ED0B0A30EE800AD0ED080A30EED1
S315080050B0200A80ED080AD0ED040AB4EEE00AF1EE03
S315080050C010FA06DCF1EE600AB4EEE00AF1EE10FA28
S315080050D001D2C0ED080A90ED080A704700000000EA
S315080050E0002828D0002A26D0017092ED001A80EDFB
S315080050F0011A92ED011A80ED021A92ED021A80ED5C
S31508005100031A80ED040A9FED0C0AC0ED050A80ED2E
S315080051100E0A80ED0D0A80ED0C0A80ED080A80ED76
S315080051200B0A80ED0A0A80ED090A80ED110A80ED66
S31508005130100A80ED0F0A7047000000002DE9F74FAE
S315080051408E462F490868036823F0010303602D483B
S3150800515003681C6824F001041C600B681C68E407DB
S31508005160F7D103E01C6824F001041C6003681C687E
S31508005170E407F7D1244F254DDFF88CC04C3FDFF804
S315080051808CB00C68DFF88490B83D4FF40016A7F190
S31508005190040AABF1600B644501D93E6009E04C4551
S315080051A002D9CAF8006004E05C4501D9EE6000E067
S315080051B0AE60D0F800804FF00066E04501D93E6049
S315080051C009E04B4502D9CAF8006004E05B4501D9FD
S315080051D0EE6000E0AE60C4F80CE00468009BE36093
S315080051E00B685A6003685A6009680A6842F0010247
S315080051F00A600068016841F001010160BDE8FE8FA0
S31508005200C86B0020286C002058640240B860024031
S315080052102DE9F04F8346344803685C6844F002047D
S315080052205C6003685C6844F001045C6000680368BD
S3150800523043F0400303602D4803681C6824F001040A
S315080052401C6003681C68E407F7D1294E294C284DD1
S315080052504C3EDFF8A0A0274FB83C4FF4001CA6F13F
S315080052600409AAF1600AAB4202D9C6F800C00BE0ED
S31508005270BB4202D9C9F800C006E0534502D9C4F8B2
S315080052800CC001E0C4F808C0DFF86CC0C3F808C059
S315080052900368D96001684A600068016841F0100136
S315080052A00160164801680B6823F001030B6001686A
S315080052B00B68DB07F7D14FF00063A94201D93360C9
S315080052C009E0B94202D9C9F8003004E0514501D9CC
S315080052D0E36000E0A360C1F808C00368C3F80CB037
S315080052E000684260BDE8F08F706B0020C86B002034
S315080052F058640240B86002400C300140286C002017
S315080053000148FDF747BC0000706B002010B5806BA4
S315080053100021C187C186FDF73BFC10BD38B50446A0
S315080053201248134B0068B0FBF3F04FF47A735843F6
S3150800533000906068B0F5827F0DD10B46009200227E
S315080053408021204600F016F870B1606D40F020000C
S315080053506065032038BD009830B1401E0090206873
S315080053608068C0430006F6D5002038BDD800002066
S3150800537000366E012DE9F8431E46914688460446D6
S31508005380089DFCF765FF401B351AFCF761FF0746C9
S3150800539025480068C0F3CB30684338E0701C37D026
S315080053A0FCF756FFC01BA84203D215B1009860B39C
S315080053B02CE02068416821F0E00141606068B0F5A2
S315080053C0827F0BD1A068B0F5004F02D0B0F5806F90
S315080053D004D12068016821F040010160A06AB0F597
S315080053E0005F09D12068016821F400510160206836
S315080053F0016841F400510160012084F85100002041
S3150800540084F850000320BDE8F8830025401E00906C
S315080054102068816838EA010004D000214945BDD1D9
S315080054200020F0E70121F9E7D800002000F008F88D
S3150800543001F04EFF02F008FD012001F081FFF7E7B9
S3150800544010B5244CB3EE040A2DED028BF3EE0E0ACA
S3150800545084ED0C0A9FED200A9FED218A84ED0D0A42
S3150800546084ED0E0AC4ED0F0ADFED1C0A04F13001C3
S31508005470C4ED100A84ED110AF2EE040AC4ED120A0C
S3150800548084ED130A84ED140AF0EE480AB0EE480AD1
S3150800549001F12400E83401F0EDFFA4F1AC01F0EECF
S315080054A0480AB0EE480A01F15C0001F0E3FFA4F1F6
S315080054B0A001F0EE480AB0EE480A01F1940001F0A6
S315080054C0D9FF002020876087A087E087BDEC028B84
S315080054D010BD0000B875002000000000CDCCCC3D02
S315080054E000008046012001F02BFFFBE710B5502095
S315080054F080F31188BFF34F8FBFF36F8F03F0B0FBB4
S3150800550018B104494FF080500860002080F31188D4
