S31508000000E8BD00205D02000807700008314F0008AF
S3150800001005700008B11700084D85000800000000AB
S315080000200000000000000000000000009D0100081C
S315080000304D22000800000000F9010008517A000866
S31508000040770200087702000877020008770200089E
S31508000050770200087702000877020008770200088E
S31508000060770200084F220008552200087702000888
S315080000701D1D000877020008291D000877020008E0
S31508000080770200087702000877020008FD170008C3
S31508000090F117000877020008770200085B220008BB
S315080000A02D7B0008497B00087702000877020008C4
S315080000B0657B0008717B0008770200087702000854
S315080000C0770200087702000877020008F17800082E
S315080000D077020008C982000877020008D58200085E
S315080000E07702000877020008770200087D7B00087F
S315080000F0897B000877020008770200087702000863
S3150800010077020008770200087702000877020008DD
S3150800011077020008770200087702000877020008CD
S31508000120351D0008411D00084D1D0008591D000811
S3150800013077020008770200087702000851180008BD
S3150800014045180008770200087702000877020008B9
S3150800015077020008651D0008711D0008BD840008A7
S31508000160770200087702000877020008770200087D
S3150800017077020008770200087702000800000000EE
S315080001807702000877020008DFF80CD001F0CCF8F7
S3150800019000480047F1990008E8BD00202C4B196873
S315080001A00868B0E8F04F80F30988BFF36F8F4FF007
S315080001B0000080F3118870470000000008480068B6
S315080001C0006880F308884FF0000080F3148862B650
S315080001D061B6BFF34F8FBFF36F8F00DF00BF00BF5D
S315080001E008ED00E0DFF80C00016841F470010160D9
S315080001F0704700BF88ED00E0EFF30980BFF36F8F0B
S31508000200134B1A681EF0100F08BF20ED108A20E95C
S31508000210F04F106009B44FF0500080F31188BFF317
S315080002204F8FBFF36F8F0BF099FB4FF0000080F3F1
S31508000230118809BC19680868B0E8F04F1EF0100F5D
S3150800024008BFB0EC108A80F30988BFF36F8F704738
S31508000250F8010020EFF30580704700000648804744
S3150800026006480047FEE7FEE7FEE7FEE7FEE7FEE78D
S31508000270FEE7FEE7FEE7FEE7117B000889010008B6
S315080002809FED1A1AF5EE000A40EE010ABDEEE00AE5
S31508000290F5EEC00A10EE100AF1EE10FA38BF401E4D
S315080002A000EE100A1349F7EE001AB8EEC00A30EE4F
S315080002B0C00ADFED0F0A20EE200AFCEEC00A10EE97
S315080002C0900AC0F3080000EE900A01EB8000F8EEF1
S315080002D0600A90ED011A70EE600A90ED000A71EE60
S315080002E0E01A21EE800A00EE810A704783F9223E61
S315080002F00000004440C80008B5EEC00AF1EE10FA46
S3150800030007D2DFED1E0AB4EEE00AF1EE10FAA8BF36
S315080003107047DFED1B0AB5EEC00A60EE200ABDEE97
S31508000320E01A11EE100AF1EE10FA38BF401E00EE80
S31508000330100A1549F7EE001AB8EEC00A30EEC00AE0
S31508000340DFED100A60EE200ABCEEE00A10EE100A95
S31508000350C0F3080000EE100A01EB8000B8EE400A70
S3150800036090ED011A70EEC00A90ED000A71EEE01ADF
S3150800037021EE800A00EE810A70470000CD024CB4D7
S3150800038083F9223E0000004440C8000870B405887E
S315080003900E884468D1F804C05368B54208D140882D
S315080003A04988884201BF11888D425188884203D006
S315080003B070BC6FF00200704705FB00F1880827D073
S315080003C094ED001ADCED000A94ED010ADCED011A41
S315080003D031EE201AD4ED020A70EE211A9CED020ABB
S315080003E083ED001AC3ED011A94ED031ADCED031A26
S315080003F030EE800A401E71EE210A83ED020A04F1EE
S315080004001004C3ED030A03F110030CF1100CD7D145
S3150800041011F0030030D0B0F1004F30D200282BDDA8
S31508000420211F1B1FACF1040210F0010F0AD091ED39
S31508000430010AD2ED010A091D121D30EE200A83EDCC
S31508000440010A1B1D400817D091ED010AD2ED010AD9
S31508000450401E30EE200A83ED010A91ED020AD2ED24
S31508000460020A01F1080102F1080230EE200A83EDC2
S31508000470020A03F10803E7D170BC00207047B4EC08
S31508000480010A401EFCEC010A30EE200AA3EC010A20
S31508000490F5D1F1E701804280436070472DE9F34FBB
S315080004A084B0049840680090486801900498B0F8B1
S315080004B000E04588DFEDFE0A00200290B0EE600AF3
S315080004C0AE4506D108884988884204BF71468645E4
S315080004D004D06FF0020006B0BDE8F08F01985FEA1D
S315080004E0010C18BFB7EE001A3DD000BFBEEB0C01D9
S315080004F017D0B1F1004F80F01F82002911DD021FCD
S3150800050011F0010F1CBFC2ED010A121D4B1006D0D7
S31508000510C2ED010AC2ED020A08325B1EF8D100EBF1
S315080005208100BCF10102A0EC011A19D0B2F1004F0A
S3150800053080F00882002A13DD031F12F0010F1CBF8A
S31508000540C3ED010A1B1D511008D000BFC3ED010AF7
S31508000550C3ED020A491E03F10803F7D100EB820036
S31508000560BCF1010CC2D14FF000080395002D14BF51
S31508000570B0EE602A002000F0BF8100BF009908FB9A
S3150800058005F001EB800B0199DBED002A01EB8000F9
S315080005900346F0EE421AC64552D9AEEB0802ABEB5B
S315080005A0850112F0010F17D001EB850191ED000AC4
S315080005B0B5EEC00AF1EE10FA07DDB4EEE10AF1EE87
S315080005C010FA09DDF0EE401A06E0B1EE400AF4EE44
S315080005D0C01AF1EE10FAF5D3521031D001EB850CA2
S315080005E09CED000AB5EEC00AF1EE10FA05DDB4EE90
S315080005F0E10AF1EE10FA09DD06E0B1EE400AF4EE82
S31508000600C01AF1EE10FA01D2F0EE401A01EBC5015C
S3150800061091ED000AB5EEC00AF1EE10FA05DDB4EE6A
S31508000620E10AF1EE10FA09DD06E0B1EE400AF4EE51
S31508000630C01AF1EE10FA01D2F0EE401A521ECDD1D0
S31508000640F5EEC01AF1EE10FA00F07381F5EEC02A45
S315080006500126F1EE10FA0099D4BFB1EE620AB0EEA7
S31508000660620AB4EE610AF1EE10FA1CBFAEEB08029C
S31508000670B2F1010C47D005FB08F201EB820292EDBC
S31508000680001A00BFB0EE410A05FB06F4B5EEC00A33
S3150800069000EB8404F1EE10FACCBFF0EE400AF1EE5E
S315080006A0400AF4EE610AF1EE10FA28D1B5EB080C0F
S315080006B011D0BCF1004F7DD2BCF1000F0BDD00BF9D
S315080006C092ED000AD1ED000ABCF1010CE2EC010A38
S315080006D0A1EC010AF4D129000ED0B1F1004F6AD27B
S315080006E0002909DD94ED000AD0ED000A491EE4EC64
S315080006F0010AA0EC010AF5D1012002900BE0761C54
S31508000700BCF1010CBED10298012804D0F5EEC02A2E
S31508000710F1EE10FA7ED09BED000AB5EB08009A467A
S315080007205946064622D0B0F1004F74D200281DDD86
S31508000730091F10F0010F06D0F0EE400A80EEA01A4D
S3150800074081ED011A091D401010D000BFD1ED010A34
S31508000750401E80EE801A81ED011A91ED021AC1EE53
S31508000760000AC1ED020A01F10801EFD1280026D0DE
S31508000770B0F1004F7ED2002821DDAAF1040110F065
S31508000780010F06D0D1ED010A80EE801A81ED011A1B
S31508000790091D401013D000BFD1ED010A401E80EE9E
S315080007A0801A81ED011AD1ED020A80EE801A81EDD8
S315080007B0021A01E0CBE0D6E001F10801ECD1DDE94F
S315080007C000124FF000095FEA0E0773D0C14504BF57
S315080007D001EB860102EB850274D091ED000ADC4636
S315080007E05046331E35D01C46B6F1004F7ED2002C3B
S315080007F02FDD0B1FABF1040C16F0010F0FD0F0EE36
S31508000800400ADCED011AB0EE601A00EEE11A83ED3B
S31508000810011A01E08DE0B1E01B1D0CF1040C741007
S3150800082015D000BFD3ED010A9CED011A40EE410A2E
S31508000830C3ED010AD3ED020A9CED021A0CF1080C6D
S3150800084040EE410AC3ED020A0833641EEAD101EB01
S3150800085086012B0036D0B3F1004F72D2002B31DD62
S31508000860A2F1040CAAF1040013F0010F0CD0DCED80
S31508000870010A00E08BE090ED011A001D40EE410AE6
S31508000880CCED010A0CF1040C5C1019D0DCED010A60
S3150800089090ED011A40EE410ACCED010ADCED020AA0
S315080008A090ED021A083040EE410ACCED020A03E048
S315080008B0000000000DE005E0641E0CF1080CE5D10F
S315080008C002EB830201EB88017F1E09F101097FF41F
S315080008D07DAF009808F10108001D00900398401E9E
S315080008E003907FF44BAE0299012900E058E004BF5B
S315080008F006B0BDE8F08F00BFB5EEC00AF1EE10FAFB
S315080009007FF4E9AD04990EFB05F3002B4A684FF016
S3150800091000010BD902EB810C9CED000AB5EEC00A6A
S31508000920F1EE10FA02D1491C8B42F3D88B427FF4C0
S31508000930D2AD6FF00400CEE5E0EC010A491EFBD10A
S31508000940EFE538E0E0EC010A521EFBD108E692ED2D
S31508000950000AD1ED000ABCF1010CE2EC010AA1EC97
S31508000960010AF4D1B7E694ED000AD0ED000A491E53
S31508000970E4EC010AA0EC010AF5D1BDE6D1ED000AC6
S31508000980401E80EE801AA1EC011AF7D1EEE6D3EDEF
S31508000990000A401E80EE801AA3EC011AF7D10EE772
S315080009A0BCEC011AD1ED000A5B1E40EE410AE1ECEF
S315080009B0010AF5D14DE7B0EC011AD2ED000A5B1E2B
S315080009C040EE410AE2EC010AF5D17BE72DE9F04F4A
S315080009D082B0466853680193058847884B8800208B
S315080009E000900888874201BFB2F800C06545528862
S315080009F093421EBF6FF0020002B0BDE8F08F9FED74
S31508000A00412A4FEA970EC7F3400B00BFDDE9000203
S31508000A1002EB800A4A6898464FF00009B0EE420A8F
S31508000A20B4465FEA0E0025D092ED001ADCED001AF6
S31508000A3002EB8302DCED010A01EE810A92ED001A4F
S31508000A4002EB8302401ED2ED001A02EB830200EE8F
S31508000A50810A9CED021ADCED030A00040CF1100C65
S31508000A60000C01EE210A92ED001A02EB830200EE59
S31508000A70810AD9D117F0030026D0ACF10404A2EB01
S31508000A80830210F0010F08D002EB8302D4ED010AAD
S31508000A9092ED001A241D00EE810A5FEA0B0013D0BE
S31508000AA002EB830CD4ED010A9CED001A02EBC3029B
S31508000AB0401E00EE810AD4ED020A92ED001A04F1F6
S31508000AC0080400EE810AEBD109F10100AAEC010A3B
S31508000AD01FFA80F9486800EB8902A8F101001FFA9D
S31508000AE080F8B8F1000F99D1009806EB87061844EC
S31508000AF080B20090681E05042D0C87D102B0002034
S31508000B00BDE8F08F0000000070B405880E884468C0
S31508000B10D1F804C05368B54208D14088498888424C
S31508000B2001BF11888D425188884203D070BC6FF08E
S31508000B300200704705FB00F1880827D094ED001ADB
S31508000B40DCED000A94ED010ADCED011A31EE601ABB
S31508000B50D4ED020A70EE611A9CED020A83ED001AC2
S31508000B60C3ED011A94ED031ADCED031A30EEC00A40
S31508000B70401E71EE610A83ED020A04F11004C3ED0A
S31508000B80030A03F110030CF1100CD7D111F003007E
S31508000B9030D0B0F1004F30D200282BDD211F1B1FAB
S31508000BA0ACF1040210F0010F0AD091ED010AD2ED62
S31508000BB0010A091D121D30EE600A83ED010A1B1D8C
S31508000BC0400817D091ED010AD2ED010A401E30EE19
S31508000BD0600A83ED010A91ED020AD2ED020A01F1DB
S31508000BE0080102F1080230EE600A83ED020A03F1F9
S31508000BF00803E7D170BC00207047B4EC010A401E18
S31508000C00FCEC010A30EE600AA3EC010AF5D1F1E723
S31508000C102DE9F04F02884768B0F802804888D1F875
S31508000C20049082B04FF0000A1646824207BF098830
S31508000C3088456FF0020002B018BFBDE8F08F4FEA92
S31508000C40980B02EB42000190C8F34000CDF8000073
S31508000C5009EB8A01BBF1000F33D0019801EB820C36
S31508000C6001EB80043B46E64601EBC2054FEA0B0062
S31508000C7093ED000A401E81ED000A93ED010A01EB8F
S31508000C8002118CED000A93ED020A0CEB021C85EDAD
S31508000C90000A93ED030A05EB021584ED000A04EB3E
S31508000CA0021403F11003E3D10EEB820000EB82007D
S31508000CB000EB8201ABF10100504307EB0B1701EB88
S31508000CC0001118F0030C21D03B1FA1EB82011CF088
S31508000CD0010F06D093ED010A01EB82011B1D81ED80
S31508000CE0000A009880B100BF93ED010A01EB820467
S31508000CF001EBC20184ED000A93ED020A401E81ED64
S31508000D00000A03F10803EFD107EB8C070AF101008B
S31508000D101FFA80FA701E0604360C99D102B000201C
S31508000D20BDE8F08F2DE9F05F0546002092469B4608
S31508000D3088460646814640241BE0284641464746E3
S31508000D40224600F03AFA53465A46C01A914110D341
S31508000D5011461846224600F021FA2D1A67EB0108BB
S31508000D604F4622460120002100F018FA17EB000929
S31508000D704E41201EA4F10104DFDC484631462A46CE
S31508000D804346BDE8F09F40EA01039B0703D009E00C
S31508000D9008C9121F08C0042AFAD203E011F8013B59
S31508000DA000F8013B521EF9D27047D2B201E000F8B2
S31508000DB0012B491EFBD270470022F6E710B51346F1
S31508000DC00A4604461946FFF7F0FF204610BD2DE9EE
S31508000DD0FE4F804681EA0300C00F0C46009021F0C2
S31508000DE0004123F00045B8EB0200A94105D2404670
S31508000DF0214690461C460B46024623F00040104307
S31508000E0047D0270DC7F30A00C3F30A510290401AC8
S31508000E10019040286BDAC3F3130040F4801B009856
S31508000E20924620B10023D2EB030A63EB0B0B019821
S31508000E305946C0F14002504600F0B0F906460D4644
S31508000E4050465946019A00F0C8F910EB080061416E
S31508000E50002487EA115284EAE7731A4340D0009ABD
S31508000E6062B3019A012A4FEA075215DC001B61EBAF
S31508000E7002014FF0004202EA0752CDE90042001C87
S31508000E8041F5801132462B4600F0FFF903B0BDE864
S31508000E90F08F40462146F9E7001B61EB0201001C72
S31508000EA041F5801300185B412018A2F5001747EB9F
S31508000EB0030140EAD570B6196D4111E06D084FEA95
S31508000EC0360645EAC0754FEA0752001B61EB020178
S31508000ED0001C41F5801149084FEA300000195141BC
S31508000EE032462B4603B0BDE8F04F00F0BFB9009874
S31508000EF0012240000023D0EB020263EBE073009866
S31508000F0021464FEAE074B8EB000061EB0401E9E71B
S31508000F1083F000435BE781F0004158E72DE9FE4F77
S31508000F2081EA030404F0004421F0004100944FF0E4
S31508000F30000B23F0004350EA01045ED052EA030492
S31508000F405BD0C3F30A54C1F30A552C44A4F2F33414
S31508000F500194A0FB0254C1F3130141F48011C3F3B9
S31508000F60130343F4801301FB024400FB034E840A77
S31508000F70970A44EA815447EA8357A4FB076802950F
S31508000F808D0A05FB07854FEA932C04FB0C542705AD
S31508000F90029D4FEA065847EA1637B5EB08056EEB89
S31508000FA0070C870E920E47EA811742EA8312A7FBBF
S31508000FB00201B6EB0B0164EB00042B0D43EA0C337C
S31508000FC05E1844EB1C50DA465146E7FB0201C5F3AE
S31508000FD013044FEA0B3343EA14534FEA0432019CD5
S31508000FE043EA0603A4F10C040294009CCDE900B47C
S31508000FF000F04BF903B0BDE8F08F00200146F9E791
S315080010002DE9F04D81EA030404F0004B21F0004578
S3150800101014464FF0000A23F0004150EA050220D09A
S3150800102054EA01021DD0C5F30A570246C5F3130355
S31508001030C1F31300C1F30A5640F4801543F4801334
S31508001040A7EB0608101BD64608F2FD3873EB050019
S3150800105002D308F1010801E092185B41B8F1000FCC
S3150800106003DA00200146BDE8F08D00204FF4801118
S31508001070064684460EE0171B73EB050705D3121BBD
S3150800108063EB050306434CEA010C49084FEA3000B6
S3150800109092185B4150EA0107EDD152EA030012D0DB
S315080010A082EA040083EA0501084305D0101BAB4118
S315080010B006D20122002306E000224FF0004302E098
S315080010C06FF0010253101AEB06004CEB085110EBB7
S315080010D00A0041EB0B01BDE8F04D00F0C7B80EB5AC
S315080010E0C10F80EAE0700844CA07002140F2334382
S315080010F08DE80E000A460B4600F0C7F803B000BD9F
S3150800110070B5C1F30A5201F000450024C1F313017A
S3150800111040F2FF3341F480119A4201DA002070BD93
S3150800112040F233439A42A2F2334203DC524200F0C1
S3150800113044F800E090402C43F1D0404270BD00F0E6
S31508001140004230F000400AD0C10D01F56071C0F3CD
S31508001150160042EA0151C2084007114370470020B1
S315080011600146704701F0004330B421F0004150EACF
S31508001170010206D00A0DA2F56072C1F31301002A16
S3150800118002DC30BC00207047440F44EAC104C100A9
S31508001190E01830BC00EBC25000F031B8202A04DB5E
S315080011A0203A00FA02F1002070479140C2F120036C
S315080011B020FA03F3194390407047202A04DB203AAB
S315080011C021FA02F00021704721FA02F3D040C2F159
S315080011D020029140084319467047202A06DBCB17A0
S315080011E0203A41FA02F043EAE07306E041FA02F3D4
S315080011F0D040C2F1200291400843194670470029A1
S31508001200A8BF7047401C490008BF20F0010070477E
S3150800121010B4B0FA80FC00FA0CF050EA010404BFDE
S3150800122010BC704749B1CCF1200421FA04F411FA34
S315080012300CF118BF012121430843A3EB0C01CB1D78
S315080012404FEA00614FEA102042BF002010BC7047E9
S3150800125000EBC35010440029A4BF10BC7047401CC3
S31508001260490008BF20F0010010BC704710B5141ED5
S3150800127073F1000408DA401C41F1000192185B4141
S315080012801A4301D120F0010010BD2DE9F04D924618
S315080012909B4611B1B1FA81F202E0B0FA80F220322F
S315080012A09046FFF77BFF04460F4640EA0A0041EAEC
S315080012B00B0153465A46084313D0114653EA010018
S315080012C019D0C8F140025046FFF777FF05460E468B
S315080012D0504659464246FFF761FF084305D00120AC
S315080012E004E020463946BDE8F08D0020054346EA6D
S315080012F0E0762C4337430A986305E40AA0EB080016
S315080013000022FD0A44EA47540A3002D50020014665
S31508001310E9E7010510196941DDE908450019694140
S31508001320BDE8F04DA2E70000064C074D06E0E06870
S3150800133040F0010394E8070098471034AC42F6D30E
S31508001340FEF726FFA8D00008C8D0000870B58C188C
S3150800135010F8015B15F0070301D110F8013B2A11BB
S3150800136006D110F8012B03E010F8016B01F8016BA8
S315080013705B1EF9D12B0705D40023521E0DD401F8A4
S31508001380013BFAE710F8013BCB1A921C03E013F86D
S31508001390015B01F8015B521EF9D5A142D8D30020A2
S315080013A070BD000030B50C4605000CD0022C0AD9D9
S315080013B00548A11E0288284600F0D0FF291901F821
S315080013C0020D000A487030BD6802002030B50C4690
S315080013D0050008D0022C06D9FF22611E00F0D4FFB2
S315080013E0291901F8010C30BD01221021014801F02C
S315080013F081BF00000000024000221021014801F0D0
S3150800140079BF00000000024001221146014801F0A0
S3150800141071BF00000004024000220121014801F0CA
S3150800142069BF00000004024070B50546FFF7E4FFF7
S31508001430922000F02DF906226549122000F00AF9DB
S31508001440FFF7D2FF624CA4F11C06607821780002EF
S3150800145000B2084300EE100AD6ED030AB8EEC00A39
S3150800146060EE200A95ED080A60EE800AC5ED000ACE
S31508001470E078A178000200B2084300EE900A96EDE3
S31508001480031AF8EEE00A60EE810A60EE800AC5EDFE
S31508001490010A60792179000200B2084300EE900A39
S315080014A03081F8EEE00A60EE810A20EE800A85EDCA
S315080014B0020AFFF7B1FF08222146002000F0CAF809
S315080014C0FFF7A2FF20780F285AD1F078A1780028D4
S315080014D0E0784FEA002000B240EA01002BD000EE87
S315080014E0100AD5ED090AB8EEC01A96ED040A51EEAF
S315080014F0000AC5ED030A60792179000200B20843A3
S3150800150000EE900A95ED0A1AF8EEE00A10EE801A37
S3150800151085ED041AE079A179000200B2084300EECD
S31508001520900A308195ED0B1AF8EEE00A10EE801A53
S3150800153085ED051A24E000EE100AF8EEC00A96EDCD
S31508001540040A60EE800AC5ED030A60792179000273
S3150800155000B2084300EE900AF8EEE00A60EE800A50
S31508001560C5ED040AE079A179000200B2084300EE4D
S31508001570900A3081F8EEE00A20EE800A85ED050A29
S31508001580FFF73AFFA22000F083F802221049222032
S3150800159000F060F8FFF728FF20786178C00040EA7D
S315080015A051103081B0F5806F02DBA0F50060308104
S315080015B0B6F90800B4EE001A00EE100AF8EEC00AF2
S315080015C0B3EE070A00EE810A85ED070A70BD000032
S315080015D07C01002070B50D461649174C086000209E
S315080015E0A07007F0B7FCA1780843A07007F046FD85
S315080015F0A1780843A0701DB1104800F02FF916E035
S315080016000E489FED0F0A80ED090A9FED0E0A80ED40
S315080016100A0A80ED0B0A9FED0C0A80ED0C0A9FED75
S315080016200B0A80ED080A9FED0A0A80ED060AA078E3
S3150800163070BD00005C01002060010020A4060020A7
S31508001640AC38223BB016CE393F161B41C48B813FBE
S315080016500000204270B514460D4640F0800000F0A8
S3150800166017F806E0552000F013F8641E05F8010B7C
S31508001670E4B2002CF6D170BD10B50C4640F08000DF
S3150800168000F006F8552000F003F8207010BD0000A1
S3150800169001B582B04FF47A7000900548012301AA7B
S315080016A002A9006802F030FC9DF804000EBD000097
S315080016B05C01002010B50C46FFF7EAFF2046BDE89E
S315080016C01040FFF7E5BFB6EE000AD2ED020AF0EECB
S315080016D0401A92ED031A40EEE01A90ED002AD2ED78
S315080016E0012AD0ED013A22EEA03A41EE411A21EE46
S315080016F0822AD2ED001A01EEC13A22EE811A01EED3
S31508001700A01A03EE232AD0ED020AF0EE001A01EE23
S31508001710202A62EE210AC1ED000A92ED011AD2EDE5
S31508001720023A92ED002AD2ED030A61EE232A90EDE1
S31508001730003A90ED014A42EE202A62EE832AB0EE84
S31508001740403A01EE413A00EEE03A63EEA00A42EE74
S31508001750410A43EE042A90ED021A40EE812A62EE0F
S31508001760A10AC1ED010A92ED011AD2ED032AD2EDC2
S31508001770020A92ED003A21EE222A60EEA22AD0ED64
S31508001780003A01EE410A03EE602A43EE012A90ED83
S31508001790013A00EEE00A22EE232AD0ED020A02EE12
S315080017A0832A00EE202A22EE210A81ED020A7047DA
S315080017B0FEE7000000B58BB000200121CDE9060147
S315080017C00590009001900290039004900E20CDE9B8
S315080017D008106946054800F009FF0221034800F091
S315080017E08FFE024801F06EFA0BB000BD18690020A2
S315080017F0014800F0F6BF000018690020014800F013
S31508001800F0BF00001869002000B58BB001220E2138
S3150800181000200792CDE9051003900490CDE9082130
S315080018200090019002906946054800F0DFFE02210B
S31508001830034800F065FE024801F044FA0BB000BD0B
S3150800184040690020014800F0CCBF00004069002034
S31508001850014800F0C6BF0000406900202DE9F04F9E
S3150800186004462DED048B89B000200090019000F00D
S315080018705DFCED4DDFF8B4B3DFF8B49385ED050AEA
S3150800188002AE0DF114084FF07C5A00BF00F04EFC72
S31508001890D5ED050A30EE600A10EE100A584512DD3D
S315080018A09FEDE40A84ED090A9FEDE30A84ED0A0A2E
S315080018B084ED0B0A9FEDE10A84ED0C0A9FEDE00A20
S315080018C084ED060A8BE19FEDDF0A00F0F3FB9FED3E
S315080018D0DE0A002784ED0C0A84ED090A84ED0A0A5B
S315080018E084ED0B0AFBE000BFFFF786FD9220FFF7A9
S315080018F0CFFE062269461220FFF7ACFEFFF774FDFD
S315080019009DF801009DF80010000200B2084300EEA1
S31508001910100AD5ED030AB8EEC00A60EE201AC4ED27
S31508001920001A9DF803009DF80210000200B2084351
S3150800193000EE100A95ED031AB8EEC00A60EE010A29
S31508001940C4ED010A9DF805009DF80410000200B2D6
S31508001950084300EE100AB8EEC00A20EE011A21EE7E
S31508001960A10A84ED021A00EEA00A01EE010A07F0A8
S31508001970FDF9B0EE408A94ED0C0A30EE080A84EDC3
S315080019800C0AFFF749FD082269460020FFF762FEA8
S31508001990FFF73AFD9DF800000F2840D19DF8030097
S315080019A09DF80210000200B2084300EE100AD5EDB9
S315080019B0040AB8EEC00A20EE200A84ED030A94ED64
S315080019C0091A31EE000A84ED090A9DF805009DF80A
S315080019D00410000200B2084300EE100AB8EEC00A6E
S315080019E020EE200A84ED040A94ED0A1A31EE000A64
S315080019F084ED0A0A9DF807009DF80610000200B259
S31508001A00084300EE100AB8EEC00A20EE200A84ED5C
S31508001A10050AD4ED0B0A30EE800A84ED0B0A002F76
S31508001A207ED0B4EEC98AF1EE10FA01DDB0EE489A1E
S31508001A30B4EEE88AF1EE10FA01D2F0EE488A0020F8
S31508001A404FEA080204EB800191ED030A06EB8001D8
S31508001A50D1ED000AB4EEE00AF1EE10FA01DD81EDEF
S31508001A60000A02EB8001D1ED000AB4EEE00AF1EEBD
S31508001A7010FA01D281ED000A401CC0B20328E1D356
S31508001A8039EE680A0020424685ED060A4FEA090142
S31508001A9006EB8003D3ED000A02EB800393ED001AF0
S31508001AA001EB8003401C70EEC10AC0B20328C3EDE7
S31508001AB0000AEDD310EE100A504514DC63480A6894
S31508001AC0824210DC4A6882420DDCD9F8081081424D
S31508001AD009DC9FED5F0A00F0EDFA7F1CBFB2E888CB
S31508001AE08742FFF401AFE988D4ED0C0A00EE101A1C
S31508001AF02F460020B8EE400A80EE801A84ED0C1AB4
S31508001B0000EE101A04EB8002401CB8EE400AD2ED33
S31508001B10090AC0B2032880EE801A82ED091A00E08D
S31508001B206AE0EDD3FFF768FCA220FFF7B1FD0222B9
S31508001B3069462220FFF78EFDFFF756FC9DF8000048
S31508001B409DF80110C00040EA5110B0F5806F01DB26
S31508001B50A0F5006000EE100AB4EE001AF8EEC00A0E
S31508001B60B3EE070A00EE810A84ED060AB888401C1F
S31508001B70B880B86950453FF789AE94ED0C0ADFED99
S31508001B80350A30EE600AB0EEC00A10EE100A50456B
S31508001B90F1DC2E48D9F800104A468142EBDC516840
S31508001BA08142E8DCD9F808108142E4DC94ED090AA0
S31508001BB02948B0EEC00A10EE101A8142DBDC94ED1B
S31508001BC00A0AB0EEC00A10EE101A8142D3DC94ED70
S31508001BD00B0AB0EEC00A10EE101A8142CBDC94ED67
S31508001BE00C0ADFED1E0A80EE801A84ED081A09B089
S31508001BF0BDEC048BBDE8F08FB0EE489AF0EE488A4B
S31508001C000020414604EB800292ED030A06EB8002AF
S31508001C1082ED000A01EB8002401CC0B282ED000A88
S31508001C200328EFD32CE700006001002000002041C4
S31508001C3098060020AC38223BB016CE393F161B4119
S31508001C40000020420AD7A33B000000009A99193EDB
S31508001C506F12033ACDCC1C410AD7233CC3F51C416D
S31508001C6070B51C4CB3EE0E0A2DED028B002584EDE3
S31508001C700C0AB6EE000A9FED188A84ED0D0ADFED10
S31508001C80178A84ED0E8A04F1300600BF05EB0510AD
S31508001C90B0EE680A04EB8000F0EE400A31463C30AC
S31508001CA008F046F86D1CEDB2042DEFD30D499FEDF3
S31508001CB00C0A0D48F0EE400A08F03AF80020A4F89D
S31508001CC05401A4F85601A4F8580184ED598ABDECCC
S31508001CD0028B70BD207900200000000000008046BD
S31508001CE000803B45C0020020887A0020FFF7B8FF35
S31508001CF0094D0024A5F85441A5F85641A5F85841C0
S31508001D0007F044FD07F036FF07F0D6FA07F046FA63
S31508001D10012007F083FFEDE720790020014801F054
S31508001D205FB80000B8740020014801F059B80000F7
S31508001D3018750020014801F053B80000BC70002057
S31508001D40014801F04DB8000078750020014801F0FF
S31508001D5047B80000F8730020014801F041B80000B8
S31508001D601C710020014801F03BB80000D87500201E
S31508001D70014801F035B80000587400202DE9F04FED
S31508001D8085680024099E802D18D0894DC563894D24
S31508001D90456490F83450012D15D0012580F834504B
S31508001DA090F83550012D10D0002180F83410022407
S31508001DB0002180F834102046BDE8F08F4FF480717A
S31508001DC041650120F8E70220F6E7022580F835503C
S31508001DD00025456505682F6847F480272F60056844
S31508001DE02B6103685E608368402B03682AD099607C
S31508001DF00168CA60714D704E704FDFF8BC81DFF81C
S31508001E00B891DFF8B8A1DFF8B4B1EA14DFF8A8E1B1
S31508001E100168183630379302A9F148090AF1600AB1
S31508001E200BF1180BAEF1300E4FF0006C41452DD971
S31508001E30A94205D0494503D0514501D0B14205D143
S31508001E40202220E09A600268D160D3E759451AD06B
S31508001E50714518D0594D7835A94214D0564D3035AC
S31508001E60A94210D0B9420BD0534A183A914207D02A
S31508001E70524A9032914203D04F4A4832914201D198
S31508001E801A4600E062464C494C392EE0DFF82C81B0
S31508001E9008F1A80841452AD9A94205D0494503D0E1
S31508001EA0514501D0B14201D120221CE059451AD032
S31508001EB0714518D0414D7835A94214D03E4D30357C
S31508001EC0A94210D0B9420BD03B4A183A914207D0E2
S31508001ED03A4A9032914203D0374A4832914201D168
S31508001EE01A4600E06246344950390A605AE0DFF87B
S31508001EF0CC8008F1480841452AD9A94205D0494568
S31508001F0003D0514501D0B14201D120221CE05945E8
S31508001F101AD0714518D0294D7835A94214D0264DC6
S31508001F203035A94210D0B9420BD0234A183A91420B
S31508001F3007D0224A9032914203D01F4A4832914232
S31508001F4001D11A4600E062461C491039CA6029E0E8
S31508001F50A94205D0494503D0514501D0B14201D126
S31508001F6020221CE059451AD0714518D0134D7835F2
S31508001F70A94214D0104D3035A94210D0B9420BD021
S31508001F800D4A183A914207D00C4A9032914203D032
S31508001F90094A4832914201D11A4600E06246074989
S31508001FA010398A6001680A6842F001020A60FFE691
S31508001FB02D94000879940008586402401060024085
S31508001FC001681823CAB2103AB2FBF3F2054B6FF355
S31508001FD00901032A9B5CC36500D9091D816508466A
S31508001FE07047000078C4000810B5014600208B69C8
S31508001FF08A6A4FF0C07453B1B3F5005F15D072B159
S31508002000012A0CD0022A0AD0032A09D104E01AB1FF
S31508002010012A06D0022A03D1C96AC90100D50120BE
S3150800202010BDC96AA142FAD010BD002AF7D0012A0C
S31508002030F2D0022AF3D0032AF3D010BD30B50468D3
S31508002040256825F480252560046863608368402B2D
S31508002050036803D099600068C26030BD9A60006862
S31508002060C16030BD01680A68D20604D5C968C906C8
S3150800207001D508F009BC704701680A68D20604D57C
S31508002080C968C90601D508F0FFBB7047074808B5F7
S3150800209040680090014606480269914202D2C1682A
S315080020A0491CC1600099016108BD0000001000E0EC
S315080020B0480000200A4948680A4AD2ED000A4A68D8
S315080020C0121AF8EE601A01EE102AB8EE411A60EEFE
S315080020D0211AB4EEE11AF1EE10FAF0D370470000B7
S315080020E0001000E04800002000B50E492DED028BD7
S315080020F081B0496800910168009A511A00EE101AD9
S315080021000949F8EE400A91ED000A0260B8EE400A65
S3150800211080EE808AFFF7BAFF01B0B0EE480ABDEC40
S31508002120028B00BD001000E04800002010B500F04A
S3150800213043F80C489FED0C1A818890ED000A00EED2
S31508002140901AC088B8EE400AF8EE600A00EE810AD6
S3150800215000EE900A9FED051AF8EE600A00EE810A75
S3150800216010BD0000780000206F12833ABD3786350F
S315080021700D490A6842F080720A600C4900224A60DA
S315080021800B6843F001030B6009494FF47A7348431F
S31508002190B0FBF3F30749C1E90003054BB0FBF3F0C5
S315080021A0C1E9020270470000FCED00E0001000E003
S315080021B040420F00480000202DE9F84321484068B6
S315080021C00090FFF763FF204F0024009EF8684FF049
S315080021D0FF312546E0FB0165C7E90E65D7F80080A3
S315080021E02346424630462946FEF79CFDA0FB083C9E
S315080021F0C7E9060101FB08C100FB0411F61A65EBE5
S315080022000105C7E9086507F130080023C8F800008A
S31508002210D7F8049030464A462946FEF783FD80B231
S31508002220A8F8040000FB09F0301A65EB0405C7E9B5
S315080022300A0529460023BA68FEF774FDA8F80600C1
S31508002240BDE8F883001000E0480000207047082029
S3150800225000F04CBF102000F049BF10B5202000F058
S3150800226045FFBDE810404FF4007000F03FBFB6EEE2
S31508002270000AD2ED020AF0EE401A92ED031A40EE79
S31508002280E01A90ED002AD2ED012AD0ED013A22EEAD
S31508002290A03A41EE411A21EE822AD2ED001A01EE49
S315080022A0813A22EE811A01EEE01A03EE232AD0EDD6
S315080022B0020AF0EE001A01EE202A62EE210AC1EDAA
S315080022C0000A92ED011AD2ED023A92ED002AD2EDF9
S315080022D0030A61EE232A90ED003A90ED014A42EE98
S315080022E0602A62EE832AB0EE403A01EE413A00EEE9
S315080022F0E03A63EEA00A42EE010A43EE042A90EDA4
S31508002300021A40EE812A62EEA10AC1ED010A92ED97
S31508002310011AD2ED032AD2ED020A92ED003A21EE15
S31508002320222A60EEA22AD0ED003A01EE410A03EE17
S31508002330202A43EE412A90ED013A00EEE00A22EE09
S31508002340232AD0ED020A02EE832A00EE202A22EE84
S31508002350210A81ED020A704772B6FEE710B558B138
S31508002360084C491E0BD310F8013B5340DBB234F836
S31508002370133083EA1222F4E74FF6FF7010BD1046B9
S3150800238010BD000040C6000810B5054C04E000BFAB
S3150800239010F8013B5340E25C491EF9D2104610BDC5
S315080023A040C500082DE9F8431D491E481E4CCA8839
S315080023B003881A448388D21AA4F854218A88438841
S315080023C0C0881A44101AA4F856010889A4F85801B6
S315080023D004F5AA7408F03EF94FF4FA654FF4257728
S315080023E000956E42C7F10008B4F9000033463A4634
S315080023F0414607F081FB20800095B4F90200334678
S315080024003A46414607F078FB60800095B4F9040027
S3150800241033463A46414607F06FFBA080BDE8F8838D
S315080024200A790020B80200202079002010B5194842
S315080024309FED170AF0EE080A2DED028B00F10C014C
S3150800244080ED030A9FED140A9FED148A80ED040AB5
S3150800245080ED050AC0ED060A80ED070A80ED080A38
S3150800246080ED2C0AF0EE480AB0EE480A243007F050
S315080024705FFCF0EE480AB0EE480A0649BDEC028B4E
S315080024801831BDE8104001F1500007F051BC0000BA
S3150800249000009643CC7A0020000000000060EA465F
S315080024A008B5FFF7C3FF154C134E002704F12405A2
S315080024B0B07A01281DD005F021F900BFB4F906004D
S315080024C0D4ED2B0A00EE100A2846B8EEC00A07F02B
S315080024D0DBFBBDEEC00A0022114610EE100A03B25D
S315080024E063801046009708F029F9012007F096FB4B
S315080024F0DEE705F083F9E1E70A790020CC7A0020C7
S3150800250090F82020012A07D0022A05D0416A41F412
S315080025108021416201207047006842690A4342618E
S3150800252000207047F0B590F820500468A468012D83
S3150800253005D0022D03D0416A41F4802153E014F0FE
S31508002540406F01D1E5004BD5C4F30164022C03D9D1
S31508002550416A41F4000146E00125A5401D608D68E9
S315080025604FF4C0739DB1CE6835434E6845EAC6053B
S31508002570066803EB0417F5514FF4C275076805EBB7
S3150800258004150E697E51097D012905D009E00E88DA
S31508002590CD6845EA4655EBE701684E5946F480761C
S315080025A04E511179D2F805504FF4C67641EA052501
S315080025B0016806EB04168D511178D2F801204FF404
S315080025C0C47541EA0221026805EB041551510068F9
S315080025D003EB0411425842F0010242500020F0BDBC
S315080025E0416A41F4001141620120F0BD10B590F82E
S315080025F02020012A07D0022A05D0416A41F4802109
S315080026004162012010BD3B48D0F8002242F0010289
S31508002610C0F80022D0F8002222F47C52C0F800222A
S31508002620D0F800224B6A42EA0322C0F800220A7D4B
S3150800263002F01F0301229A40D0F81C329343C0F8D7
S315080026401C32CB69B3B9D0F80C329343C0F80C32BC
S315080026508C894B6864F31F434C6900EBC404C4F8C7
S3150800266040320C890B6864F31F434C6900EBC404C1
S31508002670C4F84432CB69012B16D1D0F80C32134377
S31508002680C0F80C320C884B6864F31F434C6900EBA6
S31508002690C404C4F840320C89CB6864F31F434C6900
S315080026A000EBC404C4F844328B69002BD0F804321A
S315080026B00ED01343C0F804320B69002BD0F814323D
S315080026C008D01343C0F81432096A012904D008E077
S315080026D09343EFE79343F5E7D0F81C121143C0F88C
S315080026E01C12D0F8001221F00101C0F800120020D7
S315080026F010BD000000640040704730B590F82040D7
S31508002700012C05D0022C03D0416A41F480215DE0FA
S315080027100468002955D02469A40754D04FF4D87406
S31508002720056804EB01142D5915F004059560056834
S315080027302D594ED0ED08556005682C5904F0020451
S31508002740D4604FF4DA74056804EB01142D5905F0CA
S315080027500F05156105682D59C5F3072595610568A7
S315080027602C59240C54614FF4DC72046802EB0112F4
S31508002770A4581C700468A458240A5C700468A458F9
S31508002780240C9C700468A258120EDA704FF4DE729C
S31508002790046802EB0112A4581C710468A458240AA0
S315080027A05C710468A458240C9C710468A258120E23
S315080027B0DA71006881B1016941F0200101610020E8
S315080027C030BDE468A8E7416A41F40011416201207E
S315080027D030BD6D0D1560AFE7C16841F02001C160DD
S315080027E0EDE72DE9F05F0546006800244669D0F854
S315080027F004908768D0F80CB0D0F810A0D0F81880EC
S31508002800F10748D0F90714D001218160B80703D52C
S31508002810284600F084FA0CE0780702D54FF40064E5
S3150800282007E0380702D54FF4805402E0284600F046
S3150800283075FAF80516D529684FF480708860B805CA
S3150800284003D5284600F06DFA0CE0780502D544F465
S31508002850005407E0380502D544F4804402E02846CF
S3150800286000F05EFAF80316D529684FF480308860C0
S31508002870B80303D5284600F056FA0CE0780302D5CB
S3150800288044F4004407E0380302D544F4803402E0F7
S31508002890284600F047FA300707D55FEACB6004D52B
S315080028A02968102044F40074C86070074FF00807C0
S315080028B007D55FEA0B7004D52868C760284600F07C
S315080028C0A9F9B00706D52868C068800702D0284647
S315080028D000F0A2F9700607D55FEACA6004D5296830
S315080028E0102044F480640861B00607D55FEA0A70D0
S315080028F004D528680761284600F0E0F9F00606D5F1
S3150800290028680069800702D0284600F0D8F9B00385
S3150800291008D55FEAC96005D52968102048602846A9
S3150800292000F0CEF9F00307D55FEA097004D52868E8
S315080029304760284600F0F8F9300446D55FEA497042
S3150800294040D5F00504D55FEAC87001D044F001040B
S31508002950B00504D55FEA887001D544F00204700515
S3150800296004D55FEA487001D544F00404300529D53A
S3150800297018F0700F26D008F07000402815D006DC35
S31508002980102809D020280AD0302816D10AE0502865
S315080029900ED0602811D10EE044F008040DE044F092
S315080029A010040AE044F0200407E044F0400404E080
S315080029B044F0800401E044F480742868816921F0B9
S315080029C070018161296804204860002C05D0686A76
S315080029D0204368622846FFF78FFEBDE8F09F70B572
S315080029E0040003D094F8200010B104E0012070BD63
S315080029F0204600F081F82068016841F00101016075
S31508002A0000F07EFC0546052604E000F079FC401B34
S31508002A100A2811D820684068C007F6D020680168DF
S31508002A2021F00201016000F06BFC05460BE000F0A6
S31508002A3067FC401B0A2806D9606A40F400306062C9
S31508002A4084F82060D2E7206840688007EFD4207EAB
S31508002A500128206801683DD021F080010160607E70
S31508002A6001282068016838D021F040010160A07E65
S31508002A7001282068016833D021F020010160E07E3A
S31508002A800128206801682ED041F010010160207FDE
S31508002A9001282068016829D021F008010160607FBB
S31508002AA001282068016824D021F004010160D4E9D6
S31508002AB002010843D4E90412114308436168491E18
S31508002AC008432168C86100206062012084F820005C
S31508002AD0002070BD41F08001C0E741F04001C5E724
S31508002AE041F02001CAE721F01001CFE741F00801C3
S31508002AF0D4E741F00401D9E7F0B587B004461421BC
S31508002B006846FEF759F93E4B3E48DFF8F0E019688B
S31508002B10D4F800C03B4A03250226092710300024B2
S31508002B20491CF4452AD11960012907D1016841F0E9
S31508002B3000710160006800F000700590106840F0B0
S31508002B40080010601068CDE9005600F00800CDE9CD
S31508002B50047069462C48CDE9024500F0D3FA0022F4
S31508002B600521132000F078FD132000F067FD0022F0
S31508002B700521142000F070FD14203AE0DFF88CE0FF
S31508002B80F44538D1D0F800C04CF0806CC0F800C0CD
S31508002B90D0F800C001290CF0806CCDF814C019607B
S31508002BA007D1016841F000710160006800F000700B
S31508002BB00590106840F002001060106802AB00F043
S31508002BC0020005906020CDE9000683E8B00069465A
S31508002BD00F4800F097FA002205213F2000F03CFD3F
S31508002BE03F2000F02BFD00220521402000F034FD97
S31508002BF0402000F023FD07B0F0BD0000006400404F
S31508002C004802002030380240000C024000680040AC
S31508002C1000040240704700001CB5044600682149BC
S31508002C2088421FD1204B214A00212046FFF765FD27
S31508002C301E4B1868A0F50071073903D11A491C48BC
S31508002C4007F0A4F81868A0F2012103290AD819493F
S31508002C5000EB400001EB8000A0F5C05012490C388B
S31508002C6007F094F814492068884219D10F4A6B4630
S31508002C701C3200212046FFF740FD0C481C30006836
S31508002C8055280DD1BDF8000041BA0748801F0180BC
S31508002C90BDF8021049BA4180BDF8041049BA8180CE
S31508002CA01CBD000000640040700200203876002039
S31508002CB0CC7A0020207900200068004070477047D1
S31508002CC07047000070B5044690F82000012804D02B
S31508002CD0606A40F40020606218E0022084F8200050
S31508002CE02068016821F00101016000F009FB054632
S31508002CF00EE000BF00F004FB401B0A2808D9606AF2
S31508002D0040F400306062052084F82000012070BD80
S31508002D1020684068C007EDD1606270BD7047704793
S31508002D20704770477047704770472DE9F041044671
S31508002D30876D00F0E5FA064694F835000025022866
S31508002D4006D08020606584F834500120BDE8F08103
S31508002D502068016821F0160101602068416921F0A8
S31508002D6080014161206C08B9A06C20B12068016817
S31508002D7021F0080101602068016821F00101016065
S31508002D800CE000F0BDFA801B052807D920206065F5
S31508002D90032084F8350084F83450D7E720680068A3
S31508002DA0C007EED194F85C103F208840B860012037
S31508002DB084F8350084F834500020C7E790F83510B9
S31508002DC0022903D08021416501207047052180F83A
S31508002DD035100068016821F0010101600020704784
S31508002DE02DE9F84304464FF00009CDF800906348F2
S31508002DF04FF41651A56D0068B0FBF1F72E6894F8EC
S31508002E005C10082000FA01F131420FD021680A68E7
S31508002E1052070BD50A6822F004020A6094F85C107F
S31508002E208840A860606D40F00100606594F85C1009
S31508002E304FF0010808FA01F0304208D021684969C4
S31508002E40090604D5A860606D40F00200606594F834
S31508002E505C1004208840304208D021680968890738
S31508002E6004D5A860606D40F00400606594F85C10B5
S31508002E7010208840304218D021680968090714D5FF
S31508002E80A86020680168490304D50068000308D5CE
S31508002E90A16C07E00168C90503D4016821F008019F
S31508002EA00160216C09B12046884794F85C102020FF
S31508002EB08840304231D021680968C9062DD5A860F6
S31508002EC094F8350005282068016806D0490347D5D7
S31508002ED0006800031DD4616C1CE021F01601016036
S31508002EE02068416921F080014161206C08B9A06C15
S31508002EF020B12068016821F00801016094F85C108F
S31508002F003F208840A86084F8358084F83490216D85
S31508002F101FE0E16B09B120468847606D00282BD079
S31508002F20606DC00714D0052084F835002068016854
S31508002F3021F0010101600098401C0090B84203D8B6
S31508002F4020680068C007F6D184F8358084F8349084
S31508002F50E16C002910D001B02046BDE8F0430847CF
S31508002F600168C905D5D4016821F01001016084F80B
S31508002F70358084F83490CCE7BDE8F88364020020F5
S31508002F802DE9F041044600F0BBF906465CB1022083
S31508002F9084F83500002584F834502068016821F04B
S31508002FA0010101600DE00120BDE8F08100F0A8F9FB
S31508002FB0801B052805D920206065032084F8350084
S31508002FC0F2E720680068C007F0D122681168204837
S31508002FD00140D4E901031843D4E9033633431843BF
S31508002FE063691843A3691843E3691843236A1843B6
S31508002FF00843616A042903D1D4E90B13194308432A
S31508003000106020684069666A20F0070130460E4362
S31508003010012704280CD1A06A0643E06A40B120467D
S31508003020FEF7E2FF20B14020606584F83570BAE704
S31508003030206846612046FEF7C3FF94F85C203F21CE
S3150800304091408160656584F835700020ACE7000022
S315080030503F8010F02DE9F0410446866D90F8340063
S31508003060002501280DD0012084F8340094F8357025
S315080030700020012F07D084F8340002252846BDE831
S31508003080F0810220FBE7022784F835706065204648
S31508003090FEF7D4FF94F85C103F208840B0602068A3
S315080030A0016841F016010160206C20B120680168B2
S315080030B041F0080101602068016841F001010160E2
S315080030C0DCE7000070B5044600F01AF90546601CF6
S315080030D002D004480078044400F012F9401BA042CC
S315080030E0FAD370BDC001002070470000044910B52E
S315080030F00A68024202D00860FFF7F6FF10BD00001A
S31508003100143C01402DE9F84FDFF8BCA10022012547
S3150800311003264FF00F090AF1040BAAF1040E00BFAB
S315080031200B6805FA02F42340A34270D10F7907F021
S315080031300307012F01D0022F16D187684FEA4208EC
S3150800314006FA08FC27EA0C07D1F80CC00CFA08FCAA
S315080031504CEA070CC0F808C04768A7430C79C4F3C3
S31508003160001494403C4344600C79E443A4070AD015
S31508003170C4684FEA420C06FA0CF7BC438F6807FA94
S315080031800CF72743C7600C7904F00304022C12D10C
S31508003190D40800EB840CDCF820405707FF0E09FA28
S315080031A007F824EA0804D1F8108008FA07F848EA6C
S315080031B00408CCF8208004684FEA420C06FA0CF79B
S315080031C0BC430F7907F0030707FA0CF72743076094
S315080031D04C6814F4403F70D03C4C276847F480474D
S315080031E02760246822F0030704F480440094384CCE
S315080031F007EB040CDCF8084897074FEA177809FA32
S3150800320008F7BC43334FB84202D1002724E054E004
S31508003210314FB84201D101271EE0304FB84201D1E3
S31508003220022719E02E4FB84201D1032714E02D4F8B
S31508003230B84201D104270FE02B4FB84201D1052728
S315080032400AE02A4FB84201D1062705E0284FB842BE
S3150800325001D1072700E0082707FA08F72743CCF823
S315080032600878DAF800405746D1F804C09C435FEA6C
S31508003270CC2C00D51C433C60DBF800405F46D1F8F7
S3150800328004C09C435FEA8C2C00D51C433C60DEF8E6
S3150800329000407746D1F804C09C435FEA8C3C00D5D1
S315080032A01C433C60084F083F3C68D1F804C09C4367
S315080032B05FEACC3C00D51C433C60521C102AFFF444
S315080032C02FAFBDE8F88F0000083C014044380240A3
S315080032D0003001400000024000040240000802409D
S315080032E0000C024000100240001402400018024080
S315080032F0001C02400AB1816170470904FBE700001F
S315080033000148806870470000C001002070B50400BD
S3150800331025D094F83D00002520B984F83C50204675
S3150800332000F0B8F8242084F83D002068016821F0F0
S31508003330010101602068016841F4004101602068CC
S31508003340016821F40041016000F072FA4D4A616893
S31508003350914201D84C4900E04C49884201D20120EB
S3150800336070BD4B492368B0FBF1F15E6826F03F0655
S315080033700E435E606368934206D94FF496735943C9
S315080033804FF47A73B1FBF3F12368491C1E6A26F0E1
S315080033903F06314319626168914210D84900401EC0
S315080033A0B0FBF1F2521CC2F30B02042A01D204202C
S315080033B022E0B0FBF1F0401CC0F30B001CE0A26851
S315080033C0F2B301EBC10303EB0116431EB3FBF6F39D
S315080033D05B1C43F480431B0549D092B301EBC10241
S315080033E002EB0111401EB0FBF1F0401CC0F30B00CC
S315080033F040F4804040F400402168CA694CF6FF73E7
S315080034009A431043C861D4E907100143206802684B
S3150800341022F0C00211430160D4E903010143206888
S31508003420826848F2FF339A4311438160D4E9050163
S3150800343008432168CA6822F0FF021043C86001E009
S315080034400EE016E02068016841F00101016025647C
S31508003450202084F83D00256384F83E50002070BD86
S3150800346001EB4106431EB3FBF6F35B1CB3E70120F1
S31508003470C2E701EB4101401EB0FBF1F0401CC0F36E
S315080034800B00B7E7A086010080841E0000093D00F6
S3150800349040420F00F0B587B0044614216846FDF790
S315080034A08BFC1D492068884233D11C4800240168DA
S315080034B041F004010160016801F004010591016809
S315080034C041F0010101600068122500F00100059035
S315080034D04FF40070CDE9000502AA0326042782E806
S315080034E0D00069460E48FFF70DFEB801CDE9000584
S315080034F002AA694682E8D0000A48FFF703FE074891
S315080035001030016841F400010160006800F4000011
S31508003510059007B0F0BD0000005C0040303802405E
S3150800352000080240000002400248816802781144FF
S3150800353081607047C00100200B4810B5016841F44E
S3150800354000710160016841F480610160016841F41D
S3150800355080710160032000F09FF80F2000F006F844
S3150800356000F050F8002010BD003C024030B505467A
S315080035701F4887B00024016841F002010160006815
S3150800358006A900F00200009001A800F031F904989D
S31508003590A8B100F04DF940001649174AB0FBF1F101
S315080035A01648491E026040F2E732C0E90324C0E922
S315080035B00114846100F0E4FD040003D015E000F076
S315080035C037F9E9E70D4800F079FE04000DD11D2012
S315080035D000F034F8102D07D2002229461D2000F0ED
S315080035E03BF80748056000E0012407B0204630BDD7
S315080035F04038024040420F00000400407C71002021
S31508003600C40100200C4882B0016841F48041016081
S31508003610006800F4804000900748001F016841F0E8
S31508003620805101600068002200F0805000900F2150
S31508003630901E02B000F010B844380240002809DB9A
S3150800364000F01F02012191404009800000F1E020AE
S31508003650C0F8001170470000F0B40E4B1B680C460A
S31508003660C3F30223C3F10705042D00D90425191D48
S31508003670072901D2002300E0DB1E012606FA05F120
S31508003680491E214099409E40761E16403143F0BCA3
S3150800369004F0A2BF0CED00E0064900F00702086836
S315080036A04FF6FF03184040EA0220034A1043086019
S315080036B0704700000CED00E00000FA052DE9F04720
S315080036C00E46050065D0DFF81481D8F80000F7B279
S315080036D000F00700B04207D288F80070D8F800005A
S315080036E000F00700B04254D128683D4C810712D536
S315080036F0400703D5206840F4E0502060287800078A
S3150800370003D5206840F4604020602068A96820F04E
S31508003710F000084320602878C0072DD03049686833
S315080037200839012812D0022813D0032811D00968B5
S31508003730890700292DDA216821F003010143216058
S31508003740FFF7DEFD814641F2883A0EE009688903F3
S31508003750EFE709688901ECE7FFF7D2FDA0EB09015D
S31508003760514502D90320BDE8F0872068696800F052
S315080037700C00B0EB810FEFD1D8F80010404601F0ED
S315080037800701B14207D90770006800F00700B04288
S3150800379001D00120E7E72878400705D52068E968C1
S315080037A020F4E050084320602878000706D52068F2
S315080037B0296920F4604040EAC100206000F058F80A
S315080037C02168084AC1F30311515CC84006490860DC
S315080037D006480068FFF7CAFE0020C4E7003C02401E
S315080037E00838024028C5000864020020C4010020E9
S315080037F00F2202600C4A136803F003034360136840
S3150800380003F0F0038360136803F4E053C36012689F
S315080038104FF4E05303EAD20202610448006800F05C
S31508003820070008607047000008380240003C024064
S315080038300448054900680968044AC1F38221515CB5
S31508003840C8407047640200200838024038C500089E
S315080038500448054900680968044AC1F34231515CC5
S31508003860C8407047640200200838024038C500087E
S31508003870154810B5006810F00C02144813D0144906
S31508003880042A0FD0082A0ED10F4C241F2268236859
S3150800389002F03F025B0207D52068C0F38810A0FB40
S315080038A0010106E0084610BD2168C1F38811A1FB95
S315080038B000010023FDF736FA2168C1F30141491CCE
S315080038C04900B0FBF1F010BD083802400024F400AE
S315080038D0001BB7002DE9F84F04006ED02078DFF8FA
S315080038E04C93C007A9F104054AD009F10400016800
S315080038F0C1F38101012908D00068C0F381000228BC
S315080039000AD1D9F80000400206D52868800337D5C1
S3150800391060680028E1D033E06068B0F5803F10D0D9
S31508003920B0F5A02F286810D020F4803028602868C9
S3150800393020F4802028606068A8B1FFF7E1FC0646FD
S315080039400DE0286840F48030F4E740F480202860D1
S31508003950F7E700BFFFF7D4FC801B642873D82868F4
S315080039608003F7D50CE0FFF7CBFC064605E000BF61
S31508003970FFF7C6FC801B6428F0D828688003F7D4B4
S315080039802078DFF8AC8280074FF0000A3ED5A748BA
S31508003990001D016811F00C0F08D00068C0F3810003
S315080039A002280BD1D9F80000400207D428688007FE
S315080039B016D5E068012800D112E033E1E068B8B115
S315080039C00120C8F80000FFF79BFC064605E000BF8B
S315080039D0FFF796FC801B0228C0D828688007F7D511
S315080039E02868216920F0F80040EAC10028600DE047
S315080039F0C8F800A0FFF784FC064604E0FFF780FC41
S31508003A00801B02281FD828688007F7D4207800076B
S31508003A1022D5864F87486169703771B101210160E7
S31508003A20FFF76EFC064604E0FFF76AFC801B0228D7
S31508003A3009D838688007F7D50EE0C0F800A0FFF768
S31508003A405FFC064605E082E0FFF75AFC801B022869
S31508003A507DD838688007F7D42078400768D5DFF81E
S31508003A60CCB100270BF13C0BDBF80000C0000BD4EF
S31508003A70DBF8001041F08051CBF80010DBF80000AD
S31508003A80012700F0805000906B4E3068C00510D4B6
S31508003A90306840F480703060FFF732FC009005E033
S31508003AA0FFF72EFC0099401A022850D83068C00546
S31508003AB0F6D55E4EA0686C3601280FD0052830680A
S31508003AC010D020F001003060306820F0040030602B
S31508003AD0A068B8B1FFF714FC00900FE0306840F01A
S31508003AE00100F4E740F004003060F7E7FFF708FC50
S31508003AF00099411A41F28830814266D830688007B9
S31508003B00F4D50EE0FFF7FCFB009007E0FFF7F8FBA3
S31508003B100099411A41F28830814256D830688007A8
S31508003B20F4D42FB1DBF8001021F08051CBF8001047
S31508003B30A069C8B33D49091D0968C1F38101022975
S31508003B404AD00228504607D0C8F8600000E03CE09A
S31508003B50FFF7D6FB04463BE04746C8F86000FFF788
S31508003B60CFFB064605E000BFFFF7CAFB801B02280D
S31508003B702BD828688001F7D4D4E907010843A16A3D
S31508003B802E4A490802EB0141626A41EA821108435A
S31508003B9094F82C1040EA0161C9F800100120386633
S31508003BA0FFF7AEFB044606E03EE000BFFFF7A8FBC2
S31508003BB0001B022809D828688001F7D534E000BF21
S31508003BC0FFF79EFB001B022802D90320BDE8F88FE9
S31508003BD028688001F4D427E00128F7D0D9F8000036
S31508003BE0E26900F4800191421CD1226A00F03F018B
S31508003BF0914217D147F6C071626A0140B1EB821F44
S31508003C0010D1A26A4FF0FF3300F4403103EB5202A1
S31508003C10B1EB024F06D194F82C1000F07060B0EBAF
S31508003C20016F01D00120D1E70020CFE70438024018
S31508003C3000004742800E4742007000400000FFFF28
S31508003C407047000038B5016804464A688868C0436A
S31508003C50430606D5C30704D1D3435B0601D4216CBA
S31508003C6005E0830708D4D3431B0605D4616C01B06D
S31508003C702046BDE830400847830603D5430601D5EC
S31508003C80C30551D4D3439B064ED443060AD494F8AD
S31508003C905130032B49D0636D43F004036365CB6849
S31508003CA08B680093830609D4636D43F0010363654B
S31508003CB08B6800930B6823F040030B60C00506D49D
S31508003CC0606D40F008006065206880680090606D4F
S31508003CD0002829D02068416821F0E00141600120D0
S31508003CE084F85100900701D4D00722D02068416893
S31508003CF021F003014160114DE06C40B10565E06CAF
S31508003D00FFF75CF818B1606D40F040006065A06C84
S31508003D10002809D00565A06CFFF750F8002803D0E5
S31508003D20606D40F04000606538BDC86888680090DE
S31508003D3038BD2046FFF784FF38BD0000FD7800082F
S31508003D4070B5040009D0606A002540B12561656137
S31508003D50A56294F8510040B10CE0012070BD60687E
S31508003D60B0F5827FF4D0E561F2E784F8505020463A
S31508003D7000F044F8022084F851002068016821F018
S31508003D8040010160A088218900F4827001F4044191
S31508003D900843A18901F400610843217C01F002016E
S31508003DA00843217D01F001010843218B01F40071CC
S31508003DB00843217F01F03801084394F8201001F0E8
S31508003DC080010843218D01F40051084321680860E9
S31508003DD0A069042101EA104094F8241001F01001AA
S31508003DE00843216848602068C16921F40061C161FF
S31508003DF06565012084F85100002070BD2DE9F04367
S31508003E0087B0064614216846FCF7D6FF384930685D
S31508003E10884269D137480025016841F4805101601C
S31508003E20006800F48050059032481438016841F063
S31508003E3002010160016801F002010591016841F083
S31508003E40010101600068022400F0010005901820B5
S31508003E5001274FF003084FF005098DE891036946DD
S31508003E602548FFF74FF980208DE8910369462348D6
S31508003E70FFF748F9234C22484FF0C0672060C4E991
S31508003E8001754FF48068C4E9035865617812A56125
S31508003E90C4E9075020466562FFF772F808B1FEF7D5
S31508003EA05BFAF464A663174C154860344830E4E8B6
S31508003EB002074020A4E82101C00244F81459A5616C
S31508003EC0C4E907500F4865626030FFF759F808B132
S31508003ED0FEF742FAB464002205212320A663FFF701
S31508003EE0BBFB2320FFF7AAFB07B0BDE8F083000061
S31508003EF000300140443802400004024000000240FD
S31508003F0010640240BC7000202DE9F84F044690F872
S31508003F10500000270A9E1D4692468B464FF001091F
S31508003F2001280ED0012084F85000FFF7E9F98046F1
S31508003F3094F85100616801280CD0B1F5827F07D149
S31508003F4002E00220BDE8F88FA16809B9042801D06B
S31508003F500227C2E0BBF1000F27D0BAF1000F24D028
S31508003F601DB394F85100042802D0052084F85100A6
S31508003F7000206065C4F838A0E587A587C4F830B086
S31508003F80E586A5862064606420680168490603D42E
S31508003F90016841F040010160E068B0F5006F6068B3
S31508003FA005D0E8B3012D46D07FE0012795E008B19A
S31508003FB0012D39D1206B21680088C860206B801CD0
S31508003FC02063E08E401EE0862EE02068816889071F
S31508003FD00FD5E18E69B1B9F1010F0AD1216B0988B4
S31508003FE0C160206B801C2063E08E401EE0864FF087
S31508003FF0000920688168C9070CD0E18F51B1C068F3
S31508004000A16B0880A06B801CA063E08F401EE08730
S315080040104FF00109FFF774F9A0EB0800B04200E081
S3150800402009E001D3701C50D1E08E0028CDD1E08F75
S315080040300028CAD13FE0206B216800780873206BFE
S31508004040401C2063E08E401EE0862EE020688168D2
S3150800405089070FD5E18E69B1B9F1010F0AD1216B34
S3150800406009780173206B401C2063E08E401EE086B1
S315080040704FF0000920688168C9070CD0E18F51B15B
S31508004080C068A16B0870A06B401CA063E08F401E3F
S31508004090E0874FF00109FFF733F9A0EB0800B042BB
S315080040A002D3701C01D010E07EB1E08E0028CDD17D
S315080040B0E08F0028CAD142463146204603F026FC46
S315080040C028B101272020606507E0032705E0A068DE
S315080040D018B92068C16880680090012084F85100EA
S315080040E0002084F8500038462CE7704770470000D7
S315080040F070B590F83C20012A32D0012480F83C4063
S31508004100022280F83D2003685A689D6822F07006EE
S315080041100A6832435A60134B02689A4214D0B2F1C5
S31508004120804F11D0104B9A420ED0104B9A420BD0AA
S315080041300F4B9A4208D00F4B9A4205D00E4B9A4223
S3150800414002D00E4B9A4204D1496825F080031943E0
S31508004150916080F83D40002180F83C10084670BD0B
S31508004160022070BD00000140000400400008004025
S31508004170000C0040000401400040014000180040C7
S3150800418010B5040003D094F83D0010B107E00120F3
S3150800419010BD002084F83C00204600F01FF80220DD
S315080041A084F83D00211D206803F0F4FC012084F802
S315080041B0460084F83E0084F83F0084F8400084F8FE
S315080041C0410084F8420084F8430084F8440084F8E7
S315080041D0450084F83D00002010BD000008B5324AAD
S315080041E001683248914210D1016841F0010101602D
S315080041F00068002200F00100009005211820FFF752
S315080042002BFA1820FFF71AFA44E0B1F1804F19D0BB
S31508004210274A914221D1016841F0020101600068F4
S31508004220002200F00200009005212B20FFF714FA67
S315080042302B20FFF703FA002205212C20FFF70CFAA2
S315080042402C202DE01948001F016841F0010101608A
S31508004250006800F00100009008BD164A91420ED190
S31508004260016841F4803101600068002200F4803062
S31508004270009005211820FFF7EFF9182010E00E4AE4
S315080042809142E9D1016841F400310160006800F407
S3150800429000300090002205211920FFF7DDF91920CA
S315080042A0BDE80840FFF7CAB900000140443802409B
S315080042B000040140004001400044014090F83D10D0
S315080042C0012901D001207047022180F83D100168BC
S315080042D0CA6842F00102CA6000681149884214D0CF
S315080042E0B0F1804F11D00F4988420ED00E4988424E
S315080042F00BD00E49884208D00D49884205D00D4991
S31508004300884202D00C49884204D1816801F007012D
S31508004310062903D0016841F00101016000207047B9
S31508004320000001400004004000080040000C004066
S3150800433000040140004001400018004070B50446E2
S3150800434090F83C000025012817D0012684F83C6027
S31508004350022084F83D002068826822F0770222F461
S315080043607F4282600868502838D00DDC20284FD05C
S3150800437005DC90B3102811D14AE0022070BD302820
S3150800438046D040280AD13BE060282FD070280DD0AF
S31508004390B0F5805F03D0B0F5005F12D0012584F830
S315080043A03D60002084F83C00284670BDCB68D1E902
S315080043B00121206803F05FFC2068816841F07701DD
S315080043C009E0CB68D1E90121206803F054FC206894
S315080043D0816841F480418160E1E719E0CA6849686B
S315080043E0206803F032FD5021206806E0CA68496853
S315080043F0206803F03BFD6021206803F046FCCEE709
S31508004400CA684968206803F020FD40212068F4E75F
S31508004410226801461046F0E7704770B50446006802
S3150800442001694FF00005C943890715D4C168C94316
S31508004430890711D4E91E0161012020772068806967
S315080044408007204602D0FFF7E7FF04E000F0C2F835
S31508004450204600F054F9257720680169C9434907C1
S3150800446017D4C168C943490713D46FF00401016121
S31508004470022020772068806910F4407F204602D009
S31508004480FFF7CAFF04E000F0A5F8204600F037F968
S31508004490257720680169C943090716D4C168C94345
S315080044A0090712D46FF008010161042020772068FB
S315080044B0C0698007204602D0FFF7AEFF04E000F08F
S315080044C089F8204600F01BF9257720680169C94359
S315080044D0C90617D4C168C943C90613D46FF01001B9
S315080044E00161082020772068C06910F4407F2046C3
S315080044F002D0FFF791FF04E000F06CF8204600F0C8
S31508004500FEF8257720680169C943C90708D1C1683B
S31508004510C943C90704D1891E0161204600F054F930
S3150800452020680169C943090609D4C168C94309064F
S3150800453005D46FF0800101612046FFF7D6FD20689B
S315080045400169C943490609D4C168C943490605D45E
S315080045506FF040010161204600F040F920680169CA
S31508004560C94389060BD4C168C943890607D46FF0C5
S31508004570200101612046BDE87040FFF7B7BD70BD58
S3150800458010B586B0044614216846FCF715FC0E499A
S315080045902068884215D10D48016841F02001016064
S315080045A00068012100F020000590402000900220BC
S315080045B0CDE9010103900320049069460448FEF7FB
S315080045C0A1FD06B010BD000000440140303802408D
S315080045D000140240704770B5044690F83C00002667
S315080045E00D4601280FD0012084F83C006AB1042A40
S315080045F01DD0082A2FD00C2A3FD00126002084F887
S315080046003C00304670BD022070BD206803F046FBB2
S315080046102068816941F0080181612068816921F07B
S3150800462004018161206881692A69114311E02068C3
S3150800463003F064FB2068816941F4006181612068A8
S31508004640816921F480618161206881692A6941EA6A
S3150800465002218161D2E7206803F086FB2068C169E0
S3150800466041F00801C1612068C16921F00401C161F6
S315080046702068C1692A69114311E0206803F0A8FB84
S315080046802068C16941F40061C1612068C16921F4EB
S315080046908061C1612068C1692A6941EA0221C16154
S315080046A0ACE710B5040003D094F83D0010B107E05C
S315080046B0012010BD002084F83C00204600F01EF8BA
S315080046C0022084F83D00211D206803F063FA0120CA
S315080046D084F8460084F83E0084F83F0084F84000D9
S315080046E084F8410084F8420084F8430084F84400C2
S315080046F084F8450084F83D00002010BD70477047D7
S3150800470010B50446022249B104290ED0082913D04F
S3150800471094F84100012816D0012010BD94F83E00F7
S315080047200128F9D184F83E200FE094F83F000128CB
S31508004730F2D184F83F2008E094F840000128EBD134
S3150800474084F8402001E084F841200122206803F023
S3150800475085FA16492068164A884201D0904203D144
S31508004760436C43F4004343642068884213D0B0F195
S31508004770804F10D00F4988420DD00F4988420AD081
S315080047800E49884207D0904205D00D49884202D08A
S315080047900C49884204D1816801F00701062903D033
S315080047A0016841F001010160002010BD00000140D0
S315080047B0000401400004004000080040000C0040CE
S315080047C0004001400018004000680349884201D1B2
S315080047D0FEF7AABE70470000000400407047704705
S315080047E070470000F8B5016804460868CA684B694E
S315080047F010F00F0F4FF000055AD003F0010602F42F
S315080048009077374365D0C10705D0D10503D5216C0C
S3150800481041F001012164410705D5D90703D0216C70
S3150800482041F002012164810705D5D90703D0216C1F
S3150800483041F004012164010707D502F02001314344
S3150800484003D0216C41F008012164216C00293BD07A
S31508004850800604D5900602D5204603F0A1FB206801
S315080048604069216CC0F3801001F00801014320461D
S315080048702BD003F060FB20684069400621D52068EC
S31508004880143050E8001F21F0400140E80012002AC9
S31508004890F5D1A06BA8B16C490165A06BFEF78EFA3D
S315080048A0002811D0A06B016D01B0BDE8F0400847A3
S315080048B083060ED593060CD52046BDE8F84003F0CE
S315080048C06FBB2046FFF78CFFF8BDFFF789FF25640D
S315080048D0F8BD266B2023012E79D1C60677D5D606D4
S315080048E075D50868486800904869400640D5A16BA8
S315080048F0086840680004000CEAD0A28D8242E7D915
S31508004900E085C869B0F5807F2DD020680C3050E866
S31508004910001F21F4807140E80012002AF5D12068B2
S31508004920143050E8001F21F0010140E80012002A67
S31508004930F5D12068143050E8001F21F0400140E806
S315080049400012002AF5D184F83E30256320680C3021
S3150800495050E8001F21F0100140E80012002AF5D1A6
S31508004960A06BFEF7E2F9A08DE18D401A81B229E02D
S31508004970A08DE18D401A81B2E08D0028A8D00029CB
S31508004980A6D020680C3050E8002F22F4907240E838
S315080049900026002EF5D12068143050E8002F22F0AA
S315080049A0010240E80026002EF5D184F83E30256342
S315080049B020680C3050E8002F22F0100240E800234F
S315080049C0002BF5D12046FFF70AFFF8BDFFE70506DD
S315080049D02BD5150629D594F83D002128F5D1A068D0
S315080049E0B0F5805F01D12069B0B1206A411C21620F
S315080049F0216800784860E08C401E0004000CE084C2
S31508004A00E3D12068C16821F08001C1602068C168CF
S31508004A1041F04001C160D8E7206A0088C0F3080069
S31508004A204860206A801C2062E5E74006CDD550061E
S31508004A30CBD5CA68204622F04002CA6084F83D30C9
S31508004A4000F0EAF9C1E70000917E000870B504009D
S31508004A5004D094F83D00002510B106E0012070BD91
S31508004A6084F83C50204600F023F8242084F83D00C2
S31508004A702068C16821F40051C160204603F0F0FAAD
S31508004A802068016921F4904101612068416921F09B
S31508004A902A0141612068C16841F40051C16025645A
S31508004AA0202084F83D0084F83E00002070BD0000F8
S31508004AB02DE9F04F87B0044614216846FCF77CF9C7
S31508004AC0A648DFF8948214380322D4F800C0A34B12
S31508004AD002211704002506154FF0070E4FF040096E
S31508004AE0C4456FD1D3F800C04CF0100CC3F800C011
S31508004AF01B6803F010030593036843F00203036081
S31508004B00036803F002030593036843F00103036097
S31508004B1000688A4600F0010005908020CDE9000A69
S31508004B20CDE902529346F0466946CDF810E08C4826
S31508004B30FEF7E8FA7010CDE9000ACDE9025B69468E
S31508004B40CDF810808748FEF7DDFADFF820B28649EF
S31508004B5058464FF0006802C00915E0E802858E1035
S31508004B60E0E80351BA4640F8045C80E86004584619
S31508004B70CBF82450FEF704FA08B1FDF7EDFB7B4F9E
S31508004B807948C4F838B060377830CBF8384087E8C9
S31508004B9001030015C7E9035007F118007D6180E895
S31508004BA0600438467D62FEF7EBF908B1FDF7D4FBE1
S31508004BB06763002205212520BC63FEF74DFD2520ED
S31508004BC062E0FFE7DFF8A881C44562D1634BAA46D5
S31508004BD01B1FD3F800C04CF4802CC3F800C01B6818
S31508004BE003F480230593036843F004030360006815
S31508004BF000F0040005904FF440608DE82300CDE9ED
S31508004C00032E69465B48FEF77DFADFF860815A494C
S31508004C1008F1C0084046C8F800104FF0006BC0E91C
S31508004C2001B5C0E90356C8F820708915C8F81450AC
S31508004C30C8E90651C8F82450FEF7A2F908B1FDF7ED
S31508004C408BFB4E4DC4F838804B48C8F83840303096
S31508004C50C5F80890C5E9000BC5E903A6C5F814A070
S31508004C60C5F818A0C5E907A72846C5F824A0FEF781
S31508004C7087F908B1FDF770FB656300220521272037
S31508004C80AC63FEF7E9FC2720FEF7D8FC07B0BDE8C1
S31508004C90F08FDFF8EC80C445F8D1D3F800C04CF0AB
S31508004CA0200CC3F800C01B6803F0200305930368B3
S31508004CB043F040030360006800F0400005904FF49D
S31508004CC08440CDE900010120CDE9020208200490C4
S31508004CD069462C48FEF716FADFF8A080224908F143
S31508004CE06008183940464FF0206AC8F80010C0E935
S31508004CF001A5C0E90356C8F81450C8F81850C8E901
S31508004D000757C8F82450FEF73BF908B1FDF724FB0E
S31508004D101A4FC4F83880C037C8F83840C7F8089022
S31508004D20C7E9035610487D616030BD61C7E9000ACE
S31508004D304FF48030C7E9075038467D62FEF720F900
S31508004D4008B1FDF709FB6763002205214720BC630C
S31508004D50FEF782FC472097E70010014044380240DE
S31508004D60000402400000024040640240F87300203C
S31508004D7000480040000802402860024018750020DC
S31508004D8000140140001802407047000070B5044640
S31508004D9090F83D00202836D191B38AB394F83C00A8
S31508004DA0012830D0012084F83C002162A284E284E4
S31508004DB000252564212084F83D00636B1348D863D9
S31508004DC0636B13481864636B1248D864606B1346A8
S31508004DD005652668606B321DFEF73CF921686FF0A1
S31508004DE04000086084F83C502068143050E8001FE2
S31508004DF041F0800140E80012002AF5D1002070BD7C
S31508004E00FFE70120FBE70220F9E70000EB7E000838
S31508004E102D7F0008A17E00080349884202D1034974
S31508004E200020487070470000B4730020CD020020AF
S31508004E307047000070B5044600203C4D2074A27BE4
S31508004E40288861684243D4F8F400FBF79CFFA17BED
S31508004E50288841436068FBF7AFFFA07B10FB00F191
S31508004E6028884143D4F81801FBF7A6FF207BA17BCD
S31508004E7010FB01F128884143D4F80C01FBF79CFF8D
S31508004E8000202BE0D4F8F41001EB800292ED000A22
S31508004E90B5EEC00AF1EE10FA1ED0227C01EB8201B3
S31508004EA081ED000A227C616A8854A169227B01EBA4
S31508004EB08001237C91ED000A6169095C12FB0311EC
S31508004EC06FF0030202EB8101D4F80C21114481ED45
S31508004ED0000A217C491C2174401CC0B2A17B814276
S31508004EE0D0D8002010E0636AE2691B5C02EB8302FB
S31508004EF092ED000A10FB0101D4F81821401C02EBC0
S31508004F008101C0B281ED000A217C8142EBD8C8B28A
S31508004F1024F8780F14F86C0C608020816181218355
S31508004F2061832084618424F8301C70BDA8010020A8
S31508004F30FEE70000F0B58D4C0F462DED068B0546B5
S31508004F4087B01646D0ED040A94ED050A884830EE77
S31508004F50C00AB0EEC00A10EE101A814219DC95EDAF
S31508004F60050A94ED061A30EE410AB0EEC00A10EEB4
S31508004F70101A81420DDC95ED060A94ED071A30EEFB
S31508004F80410AB0EEC00A10EE101A814201DC2878F8
S31508004F90F0B39FED789A80EE890AFBF771F9F0EE87
S31508004FA0400AF0EE609AD5ED050A80EE890AFBF70D
S31508004FB067F9D5ED060AF0EE401A80EE890AB0EEDA
S31508004FC061AAFBF75DF9D5ED040AF0EE40AA80EE7A
S31508004FD0890AFBF791F9F0EE400AB0EE608AD5ED42
S31508004FE0050A80EE890AFBF787F9D5ED060AF0EE81
S31508004FF0408A80EE890AFBF77FF929EEAA2A68EE2D
S31508005000280AB0EE401AB0EE420A00EE810A00E025
S315080050102BE084ED080A2AEE080A6AEE880A0020C0
S3150800502084ED090A29EE810A00EEE80A84ED0A0AE7
S3150800503029EEA80A20EE010A0AEEC80A84ED0B0A30
S3150800504029EE8A0A84ED0C0A28EE410A02EE680A5D
S3150800505084ED0D0A2AEE410A84ED0E0A2AEE2A0A82
S31508005060C4ED0F8A84ED100A287000204FEA0D015E
S3150800507007EB800292ED000A05EB8002D2ED010AE9
S3150800508001EB8002401C20EE200AC0B2032882ED04
S31508005090000AEDD39DED000AD4ED085A9DED011ADC
S315080050A094ED094A20EE252ADDED020AD4ED0A1A06
S315080050B0002004EE012A03A901EEA02A87ED002AA2
S315080050C094ED0B3AD4ED0C2A94ED0D2A60EE033AD2
S315080050D042EE813A42EE203AC7ED013AD4ED0E3A55
S315080050E0D4ED0F4A94ED105A20EE230A04EE810AF5
S315080050F005EE200A87ED020A06EB800292ED000A09
S3150800510001EB8002401CC0B282ED000A0328F3D3EB
S315080051109DED031ADDED040A9DED050A61EE255A9B
S3150800512044EE205A41EE805A61EE031A21EE231A04
S3150800513042EEA01A04EEA01AC6ED005A42EE001A74
S3150800514005EE001AC6ED011A86ED021A95ED040A57
S3150800515084ED050A95ED050A84ED060A95ED060A1D
S3150800516084ED070A07B0BDEC068BF0BD00000020F1
S315080051706F12833AE12E654210B504462DED048B75
S31508005180D0F8EC00D0ED009A90ED019AD0ED028AA5
S3150800519029EEA90A90ED038A09EE090A08EEA80A7B
S315080051A008EE080A04F0B4FB5FF00000D4F8EC102F
S315080051B001EB8001401CD1ED000AC0B2042860EE64
S315080051C0800AC1ED000AF1D33E48D4F8001190EDEB
S315080051D06F0A60EE090AB6EE000A60EE800AC1EDB3
S315080051E0040AD0ED6F0AD4F8001160EEA80A60EE42
S315080051F0800AC1ED050AD0ED6F0AD4F8001120EE39
S31508005200A91AFEEE000A21EE201A81ED0A1A90ED7F
S315080052106F1AD4F8001121EE081A21EE001A81ED52
S315080052200B1A90ED6F1AD4F8001121EE081A21EE28
S31508005230201A81ED101A90ED6F1AD4F8001121EE9C
S31508005240291A21EE201A81ED111A90ED6F1AD4F859
S31508005250001121EE281A21EE000A81ED160A90EDBA
S315080052606F0AD4F8001120EE090A20EE200A81ED13
S31508005270170AD4F8F810D0ED740A91ED1C0A80EEDE
S31508005280201A81ED1C1AD4F8F810D0ED740A0E48CD
S3150800529091ED230A80EE201A9FED0C0A81ED231A60
S315080052A0D4F8F8100A6F824201DD81ED1C0AD4F8A1
S315080052B0F810D1F88C20824201DD81ED230ABDEC7D
S315080052C0048B10BD2804002000401C4600401C46E4
S315080052D070B52C4C01252DED028B04F5D870257080
S315080052E0B7EE008A80EC030A00209FED270A84EDBA
S315080052F0730A84F83801C4E95000C4E9520011EE73
S31508005300900AB0F17E5F01DDF0EE481AC4ED741A1A
S3150800531084ED642A032300220621201D00F0E0FE06
S315080053201A4B01221146A3F10800FBF7B3F854F80B
S31508005330EC0F9FED170A902280ED008A54F8640955
S31508005340184980ED010A606E80ED020A606E80EDF4
S31508005350030A1048A0641048E06410482065104805
S31508005360606504F85A5C04F8595CE06FFBF70BFDBE
S31508005370606F9022BDEC028B0B49BDE87040FBF7CD
S3150800538002BD00002804002077CC2B32F00500204F
S3150800539000000000AD53000879510008E1530008E9
S315080053A0B9580008E8C30008CC00002010B5044628
S315080053B0902254F8F81F0848FBF7E5FC48220748EE
S315080053C0616AFBF7E0FC054861694822BDE81040C0
S315080053D04830FBF7D8BC0000CC00002008060020A7
S315080053E070B50446B0EE000A54F8EC0F2B4DD0ED1C
S315080053F0000A60EE800AC5ED090AD0ED010A60EEE2
S31508005400800AC5ED0A0AD0ED020A60EE800AC5EDEB
S315080054100B0AD0ED030A20EE800A85ED0C0A14F873
S31508005420DE0C14F8E01C10FB01F11D48008841430E
S31508005430206AFBF7C1FCD5ED0B1A206AB1EE612A8A
S3150800544080ED002A206AD5ED0C0AC0ED010A95ED1B
S31508005450090A206AB1EE401A80ED021A206A95ED13
S315080054600A1A80ED031A206A80ED061A206A80ED72
S31508005470070A206AC0ED080A206AC0ED091A206AE0
S3150800548080ED0C0A206AB1EE410A80ED0D0A206A09
S3150800549080ED0E2A206AC0ED0F0A70BD8800002034
S315080054A0A801002070B5F74C2DED088BB0EE438AA5
S315080054B0F0EE629AB0EE42AAF0EE61AA2078B0EE5B
S315080054C0419AB0EE60BAF0EE40BADFEDEF8A58B90D
S315080054D0B0EE682AF7EE001A9FEDEC1ADFEDEC0A3B
S315080054E0B2EE040AFFF7F4FE84ED6F8A94ED580ACB
S315080054F0E84D90227BEEC00AE749C4ED5B0A94EDBD
S31508005500590A3BEE401A84ED5C1A94ED5A0A79EE74
